:020000040800F2
:1000000090040020AD010008F70F0008F50E00086D
:10001000F50F0008B9020008F915000800000000FB
:100020000000000000000000000000001B1000089D
:10003000BB02000800000000191000081D10000895
:10004000C7010008C7010008C7010008C701000870
:10005000C7010008C7010008C7010008C701000860
:10006000C7010008C7010008C7010008C701000850
:10007000C7010008C7010008C7010008C701000840
:10008000C7010008C7010008C70100080000000000
:10009000000000000000000000000000C701000890
:1000A000C7010008C7010008C7010008C701000810
:1000B000C7010008C7010008C7010008C701000800
:1000C000C7010008C7010008C7010008C7010008F0
:1000D000C7010008C7010008C701000800000000B0
:1000E000C7010008C7010008C701000800000000A0
:1000F000000000000000000000000000C701000830
:1001000000000000C7010008C7010008C70100087F
:1001100000000000000000000000000000000000DF
:10012000C7010008C7010008C7010008C70100088F
:10013000C7010008000000000000000000000000EF
:10014000000000000000000000000000C7010008DF
:10015000C7010008C7010008C7010008C70100085F
:10016000C7010008C70100080000000000000000EF
:10017000000000000000000000000000000000007F
:1001800000000000C701000800000000000000009F
:10019000C7010008C7010008DFF80CD000F07AF8AA
:1001A00000480047191600089004002006488047C0
:1001B00006480047FEE7FEE7FEE7FEE7FEE7FEE74C
:1001C000FEE7FEE7FEE7FEE7A11000089901000840
:1001D0002DE9F05F0546002092469B46884606467C
:1001E000814640241BE0284641464746224600F00F
:1001F00041F853465A46C01A914110D31146184649
:10020000224600F028F82D1A67EB01084F462246D7
:100210000120002100F01FF817EB00094E41201EBD
:10022000A4F10104DFDC484631462A464346BDE8D6
:10023000F09FD2B201E000F8012B491EFBD27047BB
:100240000022F6E710B513460A4604461946FFF7A2
:10025000F0FF204610BD202A04DB203A00FA02F10C
:10026000002070479140C2F1200320FA03F31943A4
:1002700090407047202A04DB203A21FA02F0002146
:10028000704721FA02F3D040C2F1200291400843A6
:1002900019467047064C074D06E0E06840F0010340
:1002A00094E8070098471034AC42F6D3FFF778FF84
:1002B00098160008B8160008FEE77047704700005F
:1002C00070B5044600F0D2F80546601C02D0044820
:1002D0000078044400F0CAF8401BA042FAD370BD75
:1002E000040000202DE9F84FDFF860B100224FF044
:1002F00001084FF0030A4FF00F090BF1040E00BF85
:100300000B6808FA02F42340A3426ED14D68022D17
:1003100001D0122D0ED1D50800EB850CDCF8205051
:100320005607F70E09FA07F6B5430E69BE402E438D
:10033000CCF82060066855000F790AFA05FC07F032
:10034000030726EA0C06AF40374307604E68012ECC
:1003500005D0022E03D0112E01D0122E0ED18668A8
:10036000CF6826EA0C06AF40374387604668A6434D
:100370000C79C4F30014944034434460C6688C681C
:1003800026EA0C06AC403443C4604C68E40056D501
:100390002F4C256845F480452560246822F003052C
:1003A00004F4804400942B4C2E19D6F80848950785
:1003B0002F0F09FA07F5AC43274DA84201D10025BC
:1003C00015E0264DA84201D1012510E0244DA84298
:1003D00001D102250BE0234DA84201D1032506E0FF
:1003E000214DA84202D1042501E028E00725BD40A7
:1003F0002543C6F80858DBF800405D464E689C432C
:10040000F60300D51C432C60DEF8004075464E68AC
:100410009C43B60300D51C432C600C4D08352C685A
:100420004E689C43F60200D51C432C60074D0C35EA
:100430002C684E689C43B60200D51C432C60521CAD
:10044000102AFFF45DAFBDE8F88F0000003C0140CA
:1004500044380240003001400000024000040240E5
:1004600000080240000C0240001002400148806871
:10047000704700000400002002488168027811449F
:1004800081607047040000200B4810B5016841F4FA
:1004900000710160016841F480610160016841F40C
:1004A00080710160032000F061F8002000F006F880
:1004B00000F024F8002010BD003C024070B50D4D46
:1004C00004464FF47A712878B1FBF0F00A490968C4
:1004D000B1FBF0F000F0D4FA48B9102C07D200229A
:1004E0002146501E00F022F800206C6070BD0120F3
:1004F00070BD000004000020100000200A4808B56C
:10050000016841F480410160006800F4804000907F
:100510000548001F016841F080510160006800F04B
:100520008050009008BD000044380240F0B40E4BEB
:100530001B680C46C3F30223C3F10705042D00D941
:100540000425191D072901D2002300E0DB1E012626
:1005500006FA05F1491E214099409E40761E16403C
:100560003143F0BC00F048BD0CED00E0064900F05E
:10057000070208684FF6FF03184040EA0220034ACA
:1005800010430860704700000CED00E00000FA0521
:100590002DE9F0470E46050065D0DFF81481D8F844
:1005A0000000F7B200F00F00B04207D288F80070E8
:1005B000D8F8000000F00F00B04254D128683D4C3C
:1005C000810712D5400703D5206840F4E050206031
:1005D0002878000703D5206840F460402060206838
:1005E000A96820F0F000084320602878C0072DD0CB
:1005F000304968680839012812D0022813D003282E
:1006000011D00968890700292DDA216821F003013A
:1006100001432160FFF72AFF814641F2883A0EE04C
:1006200009688903EFE709688901ECE7FFF71EFF16
:10063000A0EB0901514502D90320BDE8F0872068ED
:10064000696800F00C00B0EB810FEFD1D8F8001012
:10065000404601F00F01B14207D90770006800F071
:100660000F00B04201D00120E7E72878400705D508
:100670002068E96820F4E0500843206028780007EB
:1006800006D52068296920F4604040EAC100206056
:1006900000F036F82168084AC1F30311515CC840E4
:1006A000064908600020FFF709FF0020C5E70000A9
:1006B000003C02400838024080160008100000206C
:1006C0000448054900680968044AC1F38221515C65
:1006D000C8407047100000200838024090160008FB
:1006E0000448054900680968044AC1F34231515C75
:1006F000C8407047100000200838024090160008DB
:10070000154810B5006810F00C02144813D01449B5
:10071000042A0FD0082A0ED10F4C241F2268236808
:1007200002F03F025B0207D52068C0F38810A0FBEF
:10073000010106E0084610BD2168C1F38811A1FB44
:1007400000010023FFF744FD2168C1F30141491C6A
:100750004900B0FBF1F010BD083802400024F4005D
:1007600040787D012DE9F84F050076D02878DFF834
:10077000F8B2BE4CC00749D0DBF800105846C1F3B0
:100780008101012908D00068C0F3810002280AD144
:10079000201D0068400206D52068800336D56868B1
:1007A0000028E2D032E06868B0F5803F10D0B0F5A4
:1007B000A02F206810D020F480302060206820F422
:1007C000802020606868A0B1FFF750FE06460CE06C
:1007D000206840F48030F4E740F480202060F7E7A0
:1007E000FFF744FE801B642873D820688003F7D588
:1007F0000CE0FFF73BFE064605E000BFFFF736FEC4
:10080000801B6428F0D820688003F7D42878DFF8AC
:10081000608280074FF000093ED5DBF80010584693
:1008200011F00C0F09D00068C0F3810002280BD131
:100830008D48001F0068400206D42068800715D547
:10084000E868012809D111E0E868B8B10120C8F8CA
:100850000000FFF70BFE064605E002E1FFF706FE8B
:10086000801B0228C0D820688007F7D52068296936
:1008700020F0F80040EAC10020600DE0C8F80090C8
:10088000FFF7F4FD064604E0FFF7F0FD801B0228A9
:100890001FD820688007F7D42878000722D5724E29
:1008A000744869696C3671B101210160FFF7DEFDA2
:1008B000074604E0FFF7DAFDC01B022809D83068BC
:1008C0008007F7D50EE0C0F80090FFF7CFFD074690
:1008D00005E083E0FFF7CAFDC01B02287ED8306820
:1008E0008007F7D42878400768D5DFF87CA1002777
:1008F0000AF1380ADAF80000C0000BD4DAF8001068
:1009000041F08051CAF80010DAF80000012700F029
:1009100080500090584E3068C00510D4306840F4C4
:1009200080703060FFF7A2FD009005E0FFF79EFDAC
:100930000099401A022851D83068C005F6D54A4EB1
:10094000A868683601280FD00528306810D020F03C
:1009500001003060306820F004003060A868B8B151
:10096000FFF784FD00900FE0306840F00100F4E7ED
:1009700040F004003060F7E7FFF778FD0099411A76
:1009800041F28830814264D830688007F4D50EE0A7
:10099000FFF76CFD009007E0FFF768FD0099411A32
:1009A00041F28830814254D830688007F4D42FB1A6
:1009B000DAF8001021F08051CAF80010A869C0B31D
:1009C000DBF80010C1F3810102294AD00228484611
:1009D00007D0C8F86000FFF749FD00E039E00546A0
:1009E0003AE04746C8F86000FFF740FD064604E0DD
:1009F000FFF73CFD801B02282BD820688001F7D42C
:100A0000D5E907010843A96A1C4A490802EB0141DC
:100A10006A6A41EA8211084395F82C1040EA0161A4
:100A20001148001F016001203866FFF71FFD0546D1
:100A300005E014E0FFF71AFD401B022809D82068E2
:100A40008001F7D50BE000BFFFF710FD401B022827
:100A500002D90320BDE8F88F20688001F4D400207B
:100A6000F8E70120F6E700000838024000380240AD
:100A700000004742800E4742007000400000FFFF28
:100A800010B5401EB0F1807F01D3012010BD4FF0A2
:100A9000E02460610F21601700F0AEFA0020A06131
:100AA00007202061002010BD30B590F83820012AC1
:100AB00020D0012280F83820022380F839300368E2
:100AC0005C6824F070045C6003685C680D682C430B
:100AD0005C6003689C6824F080049C6003689C68E8
:100AE00049680C439C6080F83920002180F8381058
:100AF000084630BD022030BD10B5040003D094F884
:100B0000390010B107E0012010BD002084F8380042
:100B1000204600F00DF8022084F83900211D2068DD
:100B200000F0E8FA012084F83900002010BD000030
:100B300008B50068B0F1804F08D10548016841F060
:100B400001010160006800F00100009008BD000094
:100B50004038024070B5044690F83800012817D09C
:100B6000012584F83850022084F839002068826812
:100B700022F0770222F47F4282600868502837D042
:100B80000DDC202859D005DC88B3102841D151E074
:100B9000022070BD302853D040283AD13FE0602871
:100BA0002ED070280BD0B0F5805F03D0B0F5005F79
:100BB0002FD110E02068816821F0070115E0CB6893
:100BC000D1E90121206800F0E8FA2168886840F046
:100BD000770088601DE0CB68D1E90121206800F032
:100BE000DCFA2068816841F48041816011E01EE0F8
:100BF000CA684968206800F085FB5021206806E03B
:100C0000CA684968206800F08EFB6021206800F007
:100C1000CEFA84F83950002084F8380070BDCA68D4
:100C20004968206800F06EFB40212068EFE7002152
:100C30002068ECE710212068E9E720212068E6E73A
:100C400030212068E3E7000010B586B00446142187
:100C50006846FFF7F5FA2068B0F1804F17D10D48CC
:100C60000021026842F002020260006800F0020007
:100C700005904FF4806000900220CDE9010103202F
:100C800003900120049069460348FFF72BFB06B050
:100C900010BD0000303802400004024070B5044628
:100CA00090F838000D4601280DD0012684F83860F0
:100CB000022084F8390042B1042A18D0082A2AD028
:100CC0000C2A4DD139E0022070BD206800F078FA7E
:100CD0002068816941F0080181612068816921F003
:100CE00004018161206881692A69114311E020684B
:100CF00000F08EFA2068816941F40061816120680A
:100D0000816921F480618161206881692A6941EAF1
:100D10000221816124E0206800F0A6FA2068C16900
:100D200041F00801C1612068C16921F00401C1617D
:100D30002068C1692A69114311E0206800F0C0FAF7
:100D40002068C16941F40061C1612068C16921F472
:100D50008061C1612068C1692A6941EA0221C161DB
:100D600084F83960002084F8380070BD10B50400A4
:100D700003D094F8390010B107E0012010BD002025
:100D800084F83800204600F00CF8022084F839007E
:100D9000211D206800F0AEF9012084F83900002000
:100DA00010BD704710B504460068012200F0EAF952
:100DB00007492068884203D1416C41F400414164F5
:100DC0002068016841F001010160002010BD0000B1
:100DD0000000014010B504460068002200F0D2F97E
:100DE000104B41F2111120688A10984209D1036A10
:100DF0000B4206D1036A134203D1436C23F4004330
:100E000043642068036A0B4206D1016A114203D190
:100E1000016821F001010160012084F839000020FF
:100E200010BD00000000014070B5040004D094F82B
:100E30003900002510B106E0012070BD84F838505B
:100E4000204600F023F8242084F839002068C16887
:100E500021F40051C160204600F078FA2068016951
:100E600021F4904101612068416921F02A0141612A
:100E70002068C16841F40051C160E563202084F816
:100E8000390084F83A00002070BD000010B586B02B
:100E9000044614216846FFF7D3F9134920688842B5
:100EA00020D11248016841F400310160006800F46B
:100EB000003005900D481038016841F001010160D3
:100EC0000068694600F0010005900C2000900220A7
:100ED0000190012002900320039007200490044811
:100EE000FFF700FA06B010BD004400404038024051
:100EF00000000240FEE70000094808B5016841F023
:100F000001010160016801F001010091016841F0F7
:100F100002010160006800F00200009008BD0000BE
:100F20003038024010B58EB000240794089409941C
:100F30000A940B941C2168460C94FFF781F91E4813
:100F40004FF08041016042F20F71C0E90114C0E925
:100F50000314FFF7D1FD08B1FFF7B0F94FF480504B
:100F6000079007A91448FFF7F5FD08B1FFF7A6F9A8
:100F70001148FFF7FBFE08B1FFF7A0F90B940BA98E
:100F80000D480C94FFF790FD08B1FFF797F960202A
:100F9000009040F6C310CDE90104082269460648D6
:100FA0000494FFF77BFE08B1FFF788F90248FFF7CA
:100FB0004BFE0EB010BD0000140000200C4810B510
:100FC0000A4901604FF4E1314160002181600C2247
:100FD000C160C0E904128161C161FFF725FF0028EB
:100FE00003D0BDE81040FFF769B910BD00440040D0
:100FF00050000020FEE770470907090E002806DAB6
:1010000000F00F0000F1E02080F8141D704700F19F
:10101000E02080F80014704770477047FFF72CBA43
:1010200030B593B030216846FFF70AF914210CA8B7
:10103000FFF706F918480025016841F0805101606A
:10104000006800F0805011901448016841F440415C
:1010500001600068022400F44040119001200390D8
:1010600010200490009406940820CDE907506420D5
:10107000CDE9090404200B906846FFF773FB0CA927
:101080000F2081E83100E002CDE90F0503210CA813
:10109000FFF77EFA13B030BD4038024000700040C8
:1010A0001048016841F4700101600F48016841F087
:1010B000010101600C4A00210832116002680B4BEB
:1010C0001A400260031D0A4A1A60026822F4802254
:1010D000026005480C3001600249580680390860FA
:1010E0007047000088ED00E000380240FFFFF6FE88
:1010F00010300024F0B502681B4B1C4C9F031C4DA4
:101100001C4E984207D0B84205D0A04203D0A84256
:1011100001D0B04204D122F0700C4A6842EA0C02BD
:10112000984210D0B8420ED0A0420CD0A8420AD0AB
:10113000B04208D0104CA04205D0104CA04202D0C2
:101140000F4CA04203D122F44074CA6822430260CB
:101150008A68C2620A688262984201D109690163A1
:1011600001214161F0BD0000000001400004004089
:1011700000080040000C00400040014000440140D5
:101180000048014010B50123046A8B409C4304626F
:10119000036A8A401343036210BD10B5846842EAB3
:1011A000032224F47F440A432243826010BD8268F4
:1011B00022F070020A4342F007018160704700008C
:1011C00030B5026A22F001020262026A4368846951
:1011D00024F073050C682C4322F002058A682A4328
:1011E0000A4DA8420BD122F00805CA6823F44073C7
:1011F0002A434D6922F004021D438B692B4343604F
:10120000846149684163026230BD00000000014012
:1012100030B5026A22F010020262026A43688469F1
:101220000D6824F4E64444EA05248D6822F0200287
:1012300042EA05120B4DA8420ED1CD6822F0800281
:1012400042EA05124D6923F4406343EA85038D6940
:1012500022F0400243EA8503436084614968816368
:10126000026230BD0000014030B5026A22F4807293
:101270000262036A4268C46923F4007324F07305B0
:101280000C682C438D6843EA05230C4DA8420ED10F
:10129000CD6823F4006343EA05234D6922F44052EC
:1012A00042EA05128D6923F4806342EA0512426026
:1012B000C4614968C163036230BD000000000140A1
:1012C00030B5026A22F480520262046A4268C3693D
:1012D0000D6823F4E64343EA05238D6824F40054A3
:1012E00044EA0534064DA84204D14D6922F48042F7
:1012F00042EA85124260C36149680164046230BDFC
:101300000000014010B5036A046A24F0010404627D
:10131000846924F0F00444EA021423F00A020A4328
:101320008461026210BD10B5036A23F010030362EA
:101330008369046A23F4704343EA023224F0A00371
:1013400043EA01118261016210BD00002DE9F04104
:1013500004460068016921F44052E16811430161CB
:101360002168C86849F20C6290432369A268E56964
:101370001A4363692B431A430243CA6021684869D0
:1013800020F44072A06910434861E1696425B1F519
:10139000004F9748974A21684FF032083FD091425A
:1013A00001D081427CD1FFF79BF900EBC00101EB3A
:1013B000001061688900B0FBF1F6FFF791F900EBCE
:1013C000C00101EB001061688900B0FBF1F0B0FBD7
:1013D000F5F06FF01801484306EB800108EB0110AF
:1013E000B0FBF5F000F0F006FFF77AF900EBC00172
:1013F00001EB001061688900B0FBF1F0B0FBF5F083
:1014000006EB0016FFF76CF900EBC00101EB0010D2
:1014100061688900B0FBF1F7FFF762F9D2E0914211
:1014200001D081423DD1FFF75BF900EBC00101EB38
:10143000001061684900B0FBF1F0B0FBF5F0060167
:10144000FFF74EF900EBC00101EB001061684900A5
:10145000B0FBF1F7FFF744F900EBC00101EB00101E
:1014600061684900B0FBF1F0B0FBF5F06FF01801D6
:10147000484307EB800108EBC100B0FBF5F000F03A
:10148000F80006EB4006FFF72BF900EBC00101EB7B
:10149000001061684900B0FBF1F7FFF721F93CE06B
:1014A00055E0FFF70DF900EBC00101EB001061689A
:1014B0004900B0FBF1F0B0FBF5F00601FFF700F9D1
:1014C00000EBC00101EB001061684900B0FBF1F7CF
:1014D000FFF7F6F800EBC00101EB0010616849006E
:1014E000B0FBF1F0B0FBF5F06FF01801484307EBEB
:1014F000800108EBC100B0FBF5F000F0F80006EB4E
:101500004006FFF7DDF800EBC00101EB0010616859
:101510004900B0FBF1F7FFF7D3F800EBC00101EB96
:10152000001061684900B0FBF1F0B0FBF5F06FF01E
:101530001801484307EB800108EBC100B0FBF5F050
:1015400000F00700216830448860BDE8F081FFF7B3
:10155000B7F800EBC00101EB001061688900B0FB37
:10156000F1F6FFF7ADF800EBC00101EB0010616888
:101570008900B0FBF1F0B0FBF5F06FF018014843C3
:1015800006EB800108EB0110B0FBF5F000F0F0066F
:10159000FFF796F800EBC00101EB001061688900CD
:1015A000B0FBF1F0B0FBF5F006EB0016FFF788F8A2
:1015B00000EBC00101EB001061688900B0FBF1F79E
:1015C000FFF77EF800EBC00101EB001061688900B5
:1015D000B0FBF1F0B0FBF5F06FF01801484307EBFA
:1015E000800108EB0110B0FBF5F000F00F00A9E757
:1015F0000014014000100140FEE702E008C8121F7D
:1016000008C1002AFAD170477047002001E001C1EB
:10161000121F002AFBD170472DED028BFEF734FF1D
:10162000FFF7FEFCFFF768FCFFF77CFCFFF7C6FC4A
:10163000DFED0F0AB0EE000A0E4C20EE200A0E4D30
:101640000E4EBCEEC08A00BF216818EE100AC863B7
:1016500008210848FFF7A6FB6420FEF731FE0821A9
:101660000448FFF7B7FB2868C0F380203070EBE731
:10167000003C1C4614000020100402400000002022
:101680000000000000000000010203040607080932
:101690000000000001020304B8160008000000204A
:1016A00014000000FA150008CC16000814000020F1
:1016B0007C0400000A160008000000000100000081
:0C16C00010000000000000000024F400F6
:040000050800019955
:00000001FF
