:020000040800F2
:1000000010050020AD0100089B0D0008030D00083D
:10001000990D0008C9020008A9110008000000009D
:10002000000000000000000000000000BF0D0008FC
:10003000CB02000800000000BD0D0008C10D000843
:10004000C7010008C7010008C7010008C701000870
:10005000C7010008C7010008C7010008C701000860
:10006000C7010008C7010008C7010008C701000850
:10007000C7010008C7010008C7010008C701000840
:10008000C7010008C7010008C70100080000000000
:10009000000000000000000000000000C701000890
:1000A000C7010008C7010008C7010008C701000810
:1000B000C7010008C7010008C7010008C701000800
:1000C000C7010008C7010008C7010008C7010008F0
:1000D000C7010008C7010008C701000800000000B0
:1000E000C7010008C7010008C701000800000000A0
:1000F000000000000000000000000000C701000830
:1001000000000000C7010008C7010008C70100087F
:1001100000000000000000000000000000000000DF
:10012000C7010008C7010008C7010008C70100088F
:10013000C7010008000000000000000000000000EF
:10014000000000000000000000000000C7010008DF
:10015000C7010008C7010008C7010008C70100085F
:10016000C7010008C70100080000000000000000EF
:10017000000000000000000000000000000000007F
:1001800000000000C701000800000000000000009F
:10019000C7010008C7010008DFF80CD000F082F8A2
:1001A00000480047C9110008100500200648804794
:1001B00006480047FEE7FEE7FEE7FEE7FEE7FEE74C
:1001C000FEE7FEE7FEE7FEE7450E0008990100089E
:1001D0002DE9F05F0546002092469B46884606467C
:1001E000814640241BE0284641464746224600F00F
:1001F00048F853465A46C01A914110D31146184642
:10020000224600F02FF82D1A67EB01084F462246D0
:100210000120002100F026F817EB00094E41201EB6
:10022000A4F10104DFDC484631462A464346BDE8D6
:10023000F09FD2B201E000F8012B491EFBD27047BB
:100240000022F6E710B513460A4604461946FFF7A2
:10025000F0FF204610BD421C10F8011B0029FBD105
:10026000801A7047202A04DB203A00FA02F10020AD
:1002700070479140C2F1200320FA03F319439040E4
:100280007047202A04DB203A21FA02F0002170474F
:1002900021FA02F3D040C2F12002914008431946EE
:1002A00070470000064C074D06E0E06840F001038F
:1002B00094E8070098471034AC42F6D3FFF770FF7C
:1002C000CC130008EC130008FEE7704770470000ED
:1002D00070B5044600F0D8F80546601C02D004480A
:1002E0000078044400F0D0F8401BA042FAD370BD5F
:1002F000BC0000202DE9F84FDFF860B100224FF07C
:1003000001084FF0030A4FF00F090BF1040E00BF74
:100310000B6808FA02F42340A3426ED14D68022D07
:1003200001D0122D0ED1D50800EB850CDCF8205041
:100330005607F70E09FA07F6B5430E69BE402E437D
:10034000CCF82060066855000F790AFA05FC07F022
:10035000030726EA0C06AF40374307604E68012EBC
:1003600005D0022E03D0112E01D0122E0ED1866898
:10037000CF6826EA0C06AF40374387604668A6433D
:100380000C79C4F30014944034434460C6688C680C
:1003900026EA0C06AC403443C4604C68E40056D5F1
:1003A0002F4C256845F480452560246822F003051C
:1003B00004F4804400942B4C2E19D6F80848950775
:1003C0002F0F09FA07F5AC43274DA84201D10025AC
:1003D00015E0264DA84201D1012510E0244DA84288
:1003E00001D102250BE0234DA84201D1032506E0EF
:1003F000214DA84202D1042501E028E00725BD4097
:100400002543C6F80858DBF800405D464E689C431B
:10041000F60300D51C432C60DEF8004075464E689C
:100420009C43B60300D51C432C600C4D08352C684A
:100430004E689C43F60200D51C432C60074D0C35DA
:100440002C684E689C43B60200D51C432C60521C9D
:10045000102AFFF45DAFBDE8F88F0000003C0140BA
:1004600044380240003001400000024000040240D5
:1004700000080240000C0240001002400AB18161F5
:1004800070470904FBE700000148806870470000DE
:10049000BC000020024881680278114481607047E6
:1004A000BC0000200B4810B5016841F400710160E8
:1004B000016841F480610160016841F4807101606C
:1004C000032000F061F8002000F006F800F024F8A6
:1004D000002010BD003C024070B50D4D04464FF4A5
:1004E0007A712878B1FBF0F00A490968B1FBF0F0A5
:1004F00000F0D4FA48B9102C07D200222146501E31
:1005000000F022F800206C6070BD012070BD00007A
:10051000BC000020C80000200A4808B5016841F46A
:1005200080410160006800F4804000900548001F91
:10053000016841F080510160006800F08050009037
:1005400008BD000044380240F0B40E4B1B680C4656
:10055000C3F30223C3F10705042D00D90425191D97
:10056000072901D2002300E0DB1E012606FA05F16F
:10057000491E214099409E40761E16403143F0BCF2
:1005800000F00CBC0CED00E0064900F00702086822
:100590004FF6FF03184040EA0220034A1043086068
:1005A000704700000CED00E00000FA052DE9F0476F
:1005B0000E46050065D0DFF81481D8F80000F7B2C8
:1005C00000F00F00B04207D288F80070D8F80000A1
:1005D00000F00F00B04254D128683D4C810712D57D
:1005E000400703D5206840F4E050206028780007D9
:1005F00003D5206840F4604020602068A96820F09E
:10060000F000084320602878C0072DD03049686882
:100610000839012812D0022813D0032811D0096804
:10062000890700292DDA216821F0030101432160A7
:10063000FFF72AFF814641F2883A0EE009688903F4
:10064000EFE709688901ECE7FFF71EFFA0EB09015E
:10065000514502D90320BDE8F0872068696800F0A1
:100660000C00B0EB810FEFD1D8F80010404601F03C
:100670000F01B14207D90770006800F00F00B042C7
:1006800001D00120E7E72878400705D52068E96810
:1006900020F4E050084320602878000706D5206841
:1006A000296920F4604040EAC100206000F036F87B
:1006B0002168084AC1F30311515CC840064908602B
:1006C0000020FFF709FF0020C5E70000003C0240C2
:1006D00008380240B4130008C80000200448054947
:1006E00000680968044AC1F38221515CC840704720
:1006F000C800002008380240C41300080448054917
:1007000000680968044AC1F34231515CC84070472F
:10071000C800002008380240C4130008154810B56E
:10072000006810F00C02144813D01449042A0FD0AA
:10073000082A0ED10F4C241F2268236802F03F02C2
:100740005B0207D52068C0F38810A0FB010106E01A
:10075000084610BD2168C1F38811A1FB00010023E8
:10076000FFF736FD2168C1F30141491C4900B0FB88
:10077000F1F010BD083802400024F40040787D01FB
:100780002DE9F84F050076D02878DFF8F8B2BE4C96
:10079000C00749D0DBF800105846C1F38101012998
:1007A00008D00068C0F3810002280AD1201D00682B
:1007B000400206D52068800336D568680028E2D05C
:1007C00032E06868B0F5803F10D0B0F5A02F206807
:1007D00010D020F480302060206820F48020206039
:1007E0006868A0B1FFF750FE06460CE0206840F4B0
:1007F0008030F4E740F480202060F7E7FFF744FE04
:10080000801B642873D820688003F7D50CE0FFF7BD
:100810003BFE064605E000BFFFF736FE801B64285E
:10082000F0D820688003F7D42878DFF8608280074A
:100830004FF000093ED5DBF80010584611F00C0FC0
:1008400009D00068C0F3810002280BD18D48001F39
:100850000068400206D42068800715D5E8680128A2
:1008600009D111E0E868B8B10120C8F80000FFF72D
:100870000BFE064605E002E1FFF706FE801B02289C
:10088000C0D820688007F7D52068296920F0F800D3
:1008900040EAC10020600DE0C8F80090FFF7F4FDC9
:1008A000064604E0FFF7F0FD801B02281FD82068F1
:1008B0008007F7D42878000722D5724E74486969FA
:1008C0006C3671B101210160FFF7DEFD074604E0DF
:1008D000FFF7DAFDC01B022809D830688007F7D57A
:1008E0000EE0C0F80090FFF7CFFD074605E083E07B
:1008F000FFF7CAFDC01B02287ED830688007F7D4F6
:100900002878400768D5DFF87CA100270AF1380A6B
:10091000DAF80000C0000BD4DAF8001041F0805182
:10092000CAF80010DAF80000012700F080500090AB
:10093000584E3068C00510D4306840F48070306084
:10094000FFF7A2FD009005E0FFF79EFD0099401A19
:10095000022851D83068C005F6D54A4EA8686836D6
:1009600001280FD00528306810D020F00100306039
:10097000306820F004003060A868B8B1FFF784FD4B
:1009800000900FE0306840F00100F4E740F0040010
:100990003060F7E7FFF778FD0099411A41F288309F
:1009A000814264D830688007F4D50EE0FFF76CFD13
:1009B000009007E0FFF768FD0099411A41F2883086
:1009C000814254D830688007F4D42FB1DAF800108F
:1009D00021F08051CAF80010A869C0B3DBF80010FC
:1009E000C1F3810102294AD00228484607D0C8F83D
:1009F0006000FFF749FD00E039E005463AE0474670
:100A0000C8F86000FFF740FD064604E0FFF73CFD34
:100A1000801B02282BD820688001F7D4D5E9070174
:100A20000843A96A1C4A490802EB01416A6A41EA83
:100A30008211084395F82C1040EA01611148001F0B
:100A4000016001203866FFF71FFD054605E014E050
:100A5000FFF71AFD401B022809D820688001F7D54E
:100A60000BE000BFFFF710FD401B022802D9032056
:100A7000BDE8F88F20688001F4D40020F8E7012059
:100A8000F6E7000008380240003802400000474204
:100A9000800E4742007000400000FFFF10B5401E6E
:100AA000B0F1807F01D3012010BD4FF0E0246061E0
:100AB0000F21601700F072F90020A061072020616B
:100AC000002010BD70B5040004D094F83900002552
:100AD00010B106E0012070BD84F83850204600F0C7
:100AE00023F8242084F839002068C16821F40051DB
:100AF000C160204600F0D0F92068016921F49041DE
:100B000001612068416921F02A0141612068C168C2
:100B100041F40051C160E563202084F8390084F875
:100B20003A00002070BD000010B586B004461421C4
:100B30006846FFF785FB13492068884220D1124898
:100B4000016841F400310160006800F40030059054
:100B50000D481038016841F00101016000686946E4
:100B600000F0010005900C2000900220019001206F
:100B7000029003200390072004900448FFF7BAFB7B
:100B800006B010BD00440040403802400000024062
:100B90002DE9F843044690F83A00994616460D466A
:100BA00020284FD195B18EB194F83800012849D052
:100BB000012084F838000027E763222084F83A00F7
:100BC000FFF762FCA6858046E68531E00120BDE89E
:100BD000F883E08D401EE085A0684346B0F5805F55
:100BE0004FF000024FF020012046CDF8009004D0D5
:100BF00000F0A8FA98B10320E9E700F0A3FA002872
:100C0000F9D1206900282068406803D0C1B225F8D6
:100C1000011B0DE0C0F3080125F8021B08E0206964
:100C200000282068406801D000F07F0005F8010B23
:100C3000E08D0028CDD1202084F83A0084F8387067
:100C40000020C4E70220C2E72DE9F843044690F8EB
:100C500039001F4616460D46202850D1A5B19EB139
:100C600094F8380001284AD0012084F838004FF069
:100C70000008C4F83C80212084F83900FFF704FC08
:100C8000A6848146E68426E00120BDE8F883E08C56
:100C9000401EE084A0684B46B0F5805F4FF0000234
:100CA0004FF080012046009703D000F04BFAE8B9DE
:100CB0000DE000F047FAC8B928882168C0F30800A1
:100CC0004860206908B16D1C05E0AD1C03E0216897
:100CD00015F8010B4860E08C0028D8D14B46002263
:100CE00040212046009700F02DFA08B10320CCE700
:100CF000202084F8390084F838800020C5E70220DD
:100D0000C3E7FEE730B587B014216846FFF798FACD
:100D100011480024016841F004010160016801F0FC
:100D200004010591016841F00101016000680B4D6B
:100D300000F001000590224603212846FFF79EFBA4
:100D4000032000900120CDE9010469462846039460
:100D5000FFF7D0FA07B030BD30380240000802403B
:100D60000C4810B50A4901604FF4E131416000219F
:100D700081600C22C160C0E904128161C161FFF78A
:100D8000A1FE002803D0BDE81040FFF79FBA10BDB8
:100D900000440040CC000020FEE770470907090E20
:100DA000002806DA00F00F0000F1E02080F8141DA2
:100DB000704700F1E02080F80014704770477047DA
:100DC000FFF768BB30B593B030216846FFF738FABB
:100DD00014210CA8FFF734FA18480025016841F0E7
:100DE00080510160006800F0805011901448016843
:100DF00041F4404101600068022400F44040119039
:100E00000120039010200490009406940820CDE95E
:100E100007506420CDE9090404200B906846FFF7D1
:100E2000AFFC0CA90F2081E83100E002CDE90F05ED
:100E300003210CA8FFF7BAFB13B030BD40380240C5
:100E4000007000401048016841F4700101600F48D3
:100E5000016841F0010101600C4A00210832116073
:100E600002680B4B1A400260031D0A4A1A600268AE
:100E700022F48022026005480C30016002495806C5
:100E8000803908607047000088ED00E000380240BB
:100E9000FFFFF6FE103000242DE9F0410446006803
:100EA000016921F44052E168114301612168C86879
:100EB00049F20C6290432369A268E5691A436369A9
:100EC0002B431A430243CA602168486920F44072E8
:100ED000A06910434861E1696425B1F5004F974866
:100EE000974A21684FF032083FD0914201D08142A9
:100EF0007CD1FFF703FC00EBC00101EB001061683F
:100F00008900B0FBF1F6FFF7F9FB00EBC00101EB44
:100F1000001061688900B0FBF1F0B0FBF5F06FF0F4
:100F20001801484306EB800108EB0110B0FBF5F017
:100F300000F0F006FFF7E2FB00EBC00101EB001050
:100F400061688900B0FBF1F0B0FBF5F006EB00162C
:100F5000FFF7D4FB00EBC00101EB001061688900D2
:100F6000B0FBF1F7FFF7CAFBD2E0914201D081421A
:100F70003DD1FFF7C3FB00EBC00101EB001061683E
:100F80004900B0FBF1F0B0FBF5F00601FFF7B6FB4E
:100F900000EBC00101EB001061684900B0FBF1F704
:100FA000FFF7ACFB00EBC00101EB001061684900EA
:100FB000B0FBF1F0B0FBF5F06FF01801484307EB20
:100FC000800108EBC100B0FBF5F000F0F80006EB83
:100FD0004006FFF793FB00EBC00101EB00106168D6
:100FE0004900B0FBF1F7FFF789FB3CE055E0FFF764
:100FF00075FB00EBC00101EB001061684900B0FB1C
:10100000F1F0B0FBF5F00601FFF768FB00EBC00163
:1010100001EB001061684900B0FBF1F7FFF75EFBE0
:1010200000EBC00101EB001061684900B0FBF1F07A
:10103000B0FBF5F06FF01801484307EB800108EBB7
:10104000C100B0FBF5F000F0F80006EB4006FFF73A
:1010500045FB00EBC00101EB001061684900B0FBEB
:10106000F1F7FFF73BFB00EBC00101EB00106168FB
:101070004900B0FBF1F0B0FBF5F06FF01801484308
:1010800007EB800108EBC100B0FBF5F000F00700B2
:10109000216830448860BDE8F081FFF71FFB00EB5A
:1010A000C00101EB001061688900B0FBF1F6FFF7A9
:1010B00015FB00EBC00101EB001061688900B0FB7B
:1010C000F1F0B0FBF5F06FF01801484306EB80013A
:1010D00008EB0110B0FBF5F000F0F006FFF7FEFAA8
:1010E00000EBC00101EB001061688900B0FBF1F07A
:1010F000B0FBF5F006EB0016FFF7F0FA00EBC001CD
:1011000001EB001061688900B0FBF1F7FFF7E6FA28
:1011100000EBC00101EB001061688900B0FBF1F049
:10112000B0FBF5F06FF01801484307EB800108EBC6
:101130000110B0FBF5F000F00F00A9E7001401402A
:10114000001001402DE9F041984617460E4604462E
:10115000069D1DE0681C1BD02DB1FFF795F9A0EB93
:101160000800A84214D92068C16821F4D071C16078
:101170002068416921F001014161202084F8390093
:1011800084F83A00002084F838000320BDE8F0819C
:101190002068006836EA000004D00020B842D9D0A8
:1011A0000020F3E70120F9E7FEE702E008C8121F7C
:1011B00008C1002AFAD170477047002001E001C140
:1011C000121F002AFBD170472DE9F041FFF76AF9A1
:1011D000FFF7F8FDFFF796FDFFF7C2FD7248FFF736
:1011E0003AF882B24FF47A7423466F496F48FFF79A
:1011F0002BFD6D48A430FFF72EF86B4982B22346D1
:10120000A4316A48FFF720FD67480C38FFF723F840
:10121000654982B223460C396448FFF715FDDFF8B3
:101220008881634F4FF49675A8F10D0850E05F4830
:1012300000680168C9438906FBD45B492346012243
:101240000D395A48FFF7A4FC5748A430FFF703F8BC
:10125000554982B22346A4315448FFF7F5FC524960
:10126000234601220D395148FFF7EEFC4E480C3859
:10127000FEF7F1FF4C4982B223460C394B48FFF789
:10128000E3FC307872282BD0522829D067283CD034
:1012900047283AD071284DD051284BD06D2863D0C3
:1012A0004D2861D040489530FEF7D5FF3E4982B2C7
:1012B000234695313D48FFF7C7FC3B480C38FEF705
:1012C000CAFF394982B223460C393848FFF7BCFCC3
:1012D000D8F8040046460028A9D10020BDE8F081D6
:1012E0000026012211463846FFF7C8F82846FEF7C7
:1012F000EFFF002201213846FFF7C0F82846FEF72D
:10130000E7FF761C032EECDBE2E700260122022138
:101310003846FFF7B3F82846FEF7DAFF002202212D
:101320003846FFF7ABF82846FEF7D2FF761C032EAF
:10133000ECDBCDE71C48401FFEF78DFF1A4982B257
:101340002346491F1948FFF77FFC17480C38FEF762
:1013500082FF154982B223460C391448FFF774FC0A
:101360000021C8F80410B8E70F485830FEF773FFA3
:101370000D4982B2234658310C48FFF765FC0A48F4
:101380000C38FEF768FF084982B223460C3907483B
:10139000FFF75AFC04487530FEF75DFF024982B240
:1013A0002346753186E700000D000020CC000020A8
:1013B00000080240000000000000000001020304D9
:1013C000060708090000000001020304EC130008EE
:1013D00000000020CC000000AA110008B81400088A
:1013E000CC00002044040000BA110008000A0D00DF
:1013F000010000005155495400646973706C6179B3
:1014000020626C696E6B696E67204C4544205052B7
:101410004553532028722C522C672C47290A0D64FF
:101420006973706C61792067726F7570206D656D7E
:1014300062657273207072657373206D202C4D206D
:101440000A0D7175697420505245535320710A0D6D
:10145000005041524E554D4154204E49524F50413B
:10146000530A0D3539343032303338373600415471
:10147000544841504F4C204D4F4E47434B4F4C0A20
:101480000D353934303230353836310A0D00556E6D
:101490006B6E6F7720436F6D6D616E6400696E7067
:1014A0007574203D3E200000010000001000000087
:0814B000000000000024F4001C
:040000050800019955
:00000001FF
