:020000040800F2
:1000000050040020AD010008030E0008E70C0008B2
:10001000010E0008B90200081112000800000000DB
:10002000000000000000000000000000270E000893
:10003000BB02000800000000250E0008290E000881
:10004000C7010008C7010008C7010008C701000870
:10005000C7010008C7010008C7010008C701000860
:10006000ED020008C7010008C7010008C701000829
:10007000C7010008C7010008C7010008C701000840
:10008000C7010008C7010008C70100080000000000
:10009000000000000000000000000000C701000890
:1000A000C7010008C7010008C7010008C701000810
:1000B000C7010008C7010008C7010008C701000800
:1000C000C7010008C7010008C7010008C7010008F0
:1000D000C7010008C7010008C701000800000000B0
:1000E000BD020008C7010008C701000800000000A9
:1000F000000000000000000000000000C701000830
:1001000000000000C7010008C7010008C70100087F
:1001100000000000000000000000000000000000DF
:10012000C7010008C7010008C7010008C70100088F
:10013000C7010008000000000000000000000000EF
:10014000000000000000000000000000C7010008DF
:10015000C7010008C7010008C7010008C70100085F
:10016000C7010008C70100080000000000000000EF
:10017000000000000000000000000000000000007F
:1001800000000000C701000800000000000000009F
:10019000C7010008C7010008DFF80CD000F07AF8AA
:1001A00000480047311200085004002006488047EC
:1001B00006480047FEE7FEE7FEE7FEE7FEE7FEE74C
:1001C000FEE7FEE7FEE7FEE7AD0E00089901000836
:1001D0002DE9F05F0546002092469B46884606467C
:1001E000814640241BE0284641464746224600F00F
:1001F00041F853465A46C01A914110D31146184649
:10020000224600F028F82D1A67EB01084F462246D7
:100210000120002100F01FF817EB00094E41201EBD
:10022000A4F10104DFDC484631462A464346BDE8D6
:10023000F09FD2B201E000F8012B491EFBD27047BB
:100240000022F6E710B513460A4604461946FFF7A2
:10025000F0FF204610BD202A04DB203A00FA02F10C
:10026000002070479140C2F1200320FA03F31943A4
:1002700090407047202A04DB203A21FA02F0002146
:10028000704721FA02F3D040C2F1200291400843A6
:1002900019467047064C074D06E0E06840F0010340
:1002A00094E8070098471034AC42F6D3FFF778FF84
:1002B0007C1200089C120008FEE7704710B500246D
:1002C0000A23012207A1084800F0B0FCC82000F072
:1002D0002DF8641C142CF3DBBDE810404FF40050E3
:1002E00000F038B8420000001000002070B50B4D3F
:1002F00000240A2301220AA10A4800F097FC2021C9
:10030000284600F0F7F8C82000F010F8641C142C00
:10031000EFDBBDE87040042000F01CB80000024094
:1003200045000000100000207047000070B5044632
:1003300000F0EAF80546601C02D004480078044446
:1003400000F0E2F8401BA042FAD370BD000000208C
:1003500070470000044910B50A68024202D00860E4
:10036000FFF7F6FF10BD0000143C01402DE9F84FE7
:10037000DFF860B100224FF001084FF0030A4FF0A0
:100380000F090BF1040E00BF0B6808FA02F42340BA
:10039000A3426ED14D68022D01D0122D0ED1D50889
:1003A00000EB850CDCF820505607F70E09FA07F62B
:1003B000B5430E69BE402E43CCF820600668550058
:1003C0000F790AFA05FC07F0030726EA0C06AF408E
:1003D000374307604E68012E05D0022E03D0112E40
:1003E00001D0122E0ED18668CF6826EA0C06AF40E7
:1003F000374387604668A6430C79C4F300149440E1
:1004000034434460C6688C6826EA0C06AC4034432A
:10041000C4604C68E40056D52F4C256845F48045EF
:100420002560246822F0030504F4804400942B4CDA
:100430002E19D6F8084895072F0F09FA07F5AC438F
:10044000274DA84201D1002515E0264DA84201D133
:10045000012510E0244DA84201D102250BE0234DD7
:10046000A84201D1032506E0214DA84202D104256E
:1004700001E028E00725BD402543C6F80858DBF811
:1004800000405D464E689C43F60300D51C432C603B
:10049000DEF8004075464E689C43B60300D51C4309
:1004A0002C600C4D08352C684E689C43F60200D534
:1004B0001C432C60074D0C352C684E689C43B602DB
:1004C00000D51C432C60521C102AFFF45DAFBDE820
:1004D000F88F0000003C01404438024000300140E9
:1004E000000002400004024000080240000C0240EC
:1004F0000010024042694A40426170470AB181617E
:1005000070470904FBE7000001488068704700005D
:100510000000002002488168027811448160704721
:10052000000000200B4810B5016841F40071016023
:10053000016841F480610160016841F480710160EB
:10054000032000F06FF8002000F006F800F024F817
:10055000002010BD003C024070B50D4D04464FF424
:100560007A712878B1FBF0F00A490968B1FBF0F024
:1005700000F0E2FA48B9102C07D200222146501EA2
:1005800000F030F800206C6070BD012070BD0000EC
:10059000000000200C0000200B4882B0016841F4EC
:1005A00080410160006800F4804000900648001F10
:1005B000016841F080510160006800F080500090B7
:1005C000052002B000F02EB84438024000F01F02AF
:1005D000012191404009800000F1E020C0F80011A5
:1005E00070470000F0B40E4B1B680C46C3F30223A7
:1005F000C3F10705042D00D90425191D072901D2CF
:10060000002300E0DB1E012606FA05F1491E214009
:1006100099409E40761E16403143F0BC00F0F2BB7C
:100620000CED00E0064900F0070208684FF6FF03F2
:10063000184040EA0220034A104308607047000057
:100640000CED00E00000FA052DE9F0470E4605002C
:1006500065D0DFF81481D8F80000F7B200F00F0081
:10066000B04207D288F80070D8F8000000F00F0000
:10067000B04254D128683D4C810712D5400703D5BC
:10068000206840F4E05020602878000703D52068F7
:1006900040F4604020602068A96820F0F000084322
:1006A00020602878C0072DD03049686808390128B3
:1006B00012D0022813D0032811D009688907002915
:1006C0002DDA216821F0030101432160FFF71CFFAF
:1006D000814641F2883A0EE009688903EFE709682C
:1006E0008901ECE7FFF710FFA0EB0901514502D9A2
:1006F0000320BDE8F0872068696800F00C00B0EBCB
:10070000810FEFD1D8F80010404601F00F01B1423F
:1007100007D90770006800F00F00B04201D0012037
:10072000E7E72878400705D52068E96820F4E0501D
:10073000084320602878000706D52068296920F43E
:10074000604040EAC100206000F036F82168084AA5
:10075000C1F30311515CC840064908600020FFF74F
:10076000FBFE0020C5E70000003C024008380240C4
:10077000641200080C00002004480549006809685C
:10078000044AC1F38221515CC84070470C0000202C
:1007900008380240741200080448054900680968D6
:1007A000044AC1F34231515CC84070470C0000203C
:1007B0000838024074120008154810B5006810F09F
:1007C0000C02144813D01449042A0FD0082A0ED161
:1007D0000F4C241F2268236802F03F025B0207D5FA
:1007E0002068C0F38810A0FB010106E0084610BD98
:1007F0002168C1F38811A1FB00010023FFF7E8FC89
:100800002168C1F30141491C4900B0FBF1F010BD62
:10081000083802400024F40040787D012DE9F84FAB
:10082000050076D02878DFF8F8B2BE4CC00749D072
:10083000DBF800105846C1F38101012908D0006897
:10084000C0F3810002280AD1201D0068400206D5AD
:100850002068800336D568680028E2D032E06868F6
:10086000B0F5803F10D0B0F5A02F206810D020F454
:1008700080302060206820F4802020606868A0B16B
:10088000FFF742FE06460CE0206840F48030F4E7B3
:1008900040F480202060F7E7FFF736FE801B6428D5
:1008A00073D820688003F7D50CE0FFF72DFE0646CD
:1008B00005E000BFFFF728FE801B6428F0D8206801
:1008C0008003F7D42878DFF8608280074FF00009B2
:1008D0003ED5DBF80010584611F00C0F09D0006827
:1008E000C0F3810002280BD18D48001F0068400230
:1008F00006D42068800715D5E868012809D111E0E1
:10090000E868B8B10120C8F80000FFF7FDFD064611
:1009100005E002E1FFF7F8FD801B0228C0D820683F
:100920008007F7D52068296920F0F80040EAC10067
:1009300020600DE0C8F80090FFF7E6FD064604E0F1
:10094000FFF7E2FD801B02281FD820688007F7D43C
:100950002878000722D5724E744869696C3671B1E7
:1009600001210160FFF7D0FD074604E0FFF7CCFD51
:10097000C01B022809D830688007F7D50EE0C0F800
:100980000090FFF7C1FD074605E083E0FFF7BCFDDF
:10099000C01B02287ED830688007F7D4287840072B
:1009A00068D5DFF87CA100270AF1380ADAF80000E0
:1009B000C0000BD4DAF8001041F08051CAF80010E2
:1009C000DAF80000012700F080500090584E30689F
:1009D000C00510D4306840F480703060FFF794FD9B
:1009E000009005E0FFF790FD0099401A022851D8C9
:1009F0003068C005F6D54A4EA868683601280FD081
:100A00000528306810D020F001003060306820F0F8
:100A100004003060A868B8B1FFF776FD00900FE0E1
:100A2000306840F00100F4E740F004003060F7E780
:100A3000FFF76AFD0099411A41F28830814264D87B
:100A400030688007F4D50EE0FFF75EFD009007E008
:100A5000FFF75AFD0099411A41F28830814254D87B
:100A600030688007F4D42FB1DAF8001021F08051FB
:100A7000CAF80010A869C0B3DBF80010C1F3810107
:100A800002294AD00228484607D0C8F86000FFF77C
:100A90003BFD00E039E005463AE04746C8F8600013
:100AA000FFF732FD064604E0FFF72EFD801B02280B
:100AB0002BD820688001F7D4D5E907010843A96A3B
:100AC0001C4A490802EB01416A6A41EA8211084363
:100AD00095F82C1040EA01611148001F01600120C7
:100AE0003866FFF711FD054605E014E0FFF70CFD41
:100AF000401B022809D820688001F7D50BE000BF11
:100B0000FFF702FD401B022802D90320BDE8F88F41
:100B100020688001F4D40020F8E70120F6E7000007
:100B2000083802400038024000004742800E474229
:100B3000007000400000FFFF10B5401EB0F1807F44
:100B400001D3012010BD4FF0E02460610F21601738
:100B500000F058F90020A06107202061002010BD9E
:100B600070B5040004D094F83900002510B106E0F7
:100B7000012070BD84F83850204600F023F824206E
:100B800084F839002068C16821F40051C160204612
:100B900000F0B6F92068016921F4904101612068F4
:100BA000416921F02A0141612068C16841F4005186
:100BB000C160E563202084F8390084F83A00002001
:100BC00070BD000010B586B0044614216846FFF7DA
:100BD00037FB13492068884220D11248016841F44C
:100BE00000310160006800F4003005900D481038B5
:100BF000016841F0010101600068694600F00100F0
:100C000005900C200090022001900120029003200A
:100C10000390072004900448FFF7A8FB06B010BD1E
:100C20000044004040380240000002402DE9F843F3
:100C3000044690F839001F4616460D46202850D12C
:100C4000A5B19EB194F8380001284AD0012084F85B
:100C500038004FF00008C4F83C80212084F83900A7
:100C6000FFF752FCA6848146E68426E00120BDE819
:100C7000F883E08C401EE084A0684B46B0F5805FAE
:100C80004FF000024FF080012046009703D000F0A3
:100C90008DFAE8B90DE000F089FAC8B92888216812
:100CA000C0F308004860206908B16D1C05E0AD1C68
:100CB00003E0216815F8010B4860E08C0028D8D1CA
:100CC0004B46002240212046009700F06FFA08B101
:100CD0000320CCE7202084F8390084F838800020F5
:100CE000C5E70220C3E7FEE72DE9F04186B01421F5
:100CF0006846FFF7A5FA2F480024016841F0040177
:100D00000160016801F004010591016841F00101F1
:100D10000160016801F001010591016841F00201E3
:100D200001600068244F00F00200059000220121BC
:100D30003846FFF7E3FBDFF884800022202140469D
:100D4000FFF7DCFB1E4E4FF40050CDE9000669466C
:100D500002943846FFF70AFB01250095CDE90154BE
:100D6000694638460394FFF701FB20200090CDE947
:100D70000154694640460394FFF7F8FA0420CDE990
:100D80000006694602940F48FFF7F0FA0322022199
:100D90000820FFF727FC0820FFF718FC0122032199
:100DA0002820FFF71FFC2820FFF710FC06B0BDE845
:100DB000F08100003038024000080240000002408C
:100DC00000001110000402400C4810B50A490160EF
:100DD0004FF4E1314160002181600C22C160C0E923
:100DE00004128161C161FFF7BBFE002803D0BDE89A
:100DF0001040FFF799BA10BD0044004010000020D9
:100E0000FEE770470907090E002806DA00F00F0018
:100E100000F1E02080F8141D704700F1E02080F818
:100E20000014704770477047FFF774BB30B593B03C
:100E300030216846FFF704FA14210CA8FFF700FAE6
:100E400018480025016841F080510160006800F0F9
:100E5000805011901448016841F4404101600068DD
:100E6000022400F4404011900120039010200490CF
:100E7000009406940820CDE907506420CDE90904C8
:100E800004200B906846FFF7C9FC0CA90F2081E8ED
:100E90003100E002CDE90F0503210CA8FFF7D4FBD8
:100EA00013B030BD40380240007000401048016867
:100EB00041F4700101600F48016841F001010160D7
:100EC0000C4A00210832116002680B4B1A40026084
:100ED000031D0A4A1A60026822F480220260054853
:100EE0000C300160024958068039086070470000E4
:100EF00088ED00E000380240FFFFF6FE10300024CD
:100F00002DE9F04104460068016921F44052E1688E
:100F1000114301612168C86849F20C62904323695A
:100F2000A268E5691A4363692B431A430243CA6006
:100F30002168486920F44072A06910434861E16962
:100F40006425B1F5004F9748974A21684FF0320861
:100F50003FD0914201D081427CD1FFF71DFC00EBD4
:100F6000C00101EB001061688900B0FBF1F6FFF7EA
:100F700013FC00EBC00101EB001061688900B0FBBD
:100F8000F1F0B0FBF5F06FF01801484306EB80017B
:100F900008EB0110B0FBF5F000F0F006FFF7FCFBEA
:100FA00000EBC00101EB001061688900B0FBF1F0BB
:100FB000B0FBF5F006EB0016FFF7EEFB00EBC0010F
:100FC00001EB001061688900B0FBF1F7FFF7E4FB6B
:100FD000D2E0914201D081423DD1FFF7DDFB00EB31
:100FE000C00101EB001061684900B0FBF1F0B0FBFB
:100FF000F5F00601FFF7D0FB00EBC00101EB00109C
:1010000061684900B0FBF1F7FFF7C6FB00EBC001D8
:1010100001EB001061684900B0FBF1F0B0FBF5F0A6
:101020006FF01801484307EB800108EBC100B0FBEB
:10103000F5F000F0F80006EB4006FFF7ADFB00EB23
:10104000C00101EB001061684900B0FBF1F7FFF748
:10105000A3FB3CE055E0FFF78FFB00EBC00101EB89
:10106000001061684900B0FBF1F0B0FBF5F006013B
:10107000FFF782FB00EBC00101EB00106168490043
:10108000B0FBF1F7FFF778FB00EBC00101EB0010BC
:1010900061684900B0FBF1F0B0FBF5F06FF01801AA
:1010A000484307EB800108EBC100B0FBF5F000F00E
:1010B000F80006EB4006FFF75FFB00EBC00101EB19
:1010C000001061684900B0FBF1F7FFF755FB00EB3A
:1010D000C00101EB001061684900B0FBF1F0B0FB0A
:1010E000F5F06FF01801484307EB800108EBC100F1
:1010F000B0FBF5F000F00700216830448860BDE8DF
:10110000F081FFF739FB00EBC00101EB00106168D3
:101110008900B0FBF1F6FFF72FFB00EBC00101EBFC
:10112000001061688900B0FBF1F0B0FBF5F06FF0E2
:101130001801484306EB800108EB0110B0FBF5F005
:1011400000F0F006FFF718FB00EBC00101EB001008
:1011500061688900B0FBF1F0B0FBF5F006EB00161A
:10116000FFF70AFB00EBC00101EB0010616889008A
:10117000B0FBF1F7FFF700FB00EBC00101EB001043
:1011800061688900B0FBF1F0B0FBF5F06FF0180179
:10119000484307EB800108EB0110B0FBF5F000F0CD
:1011A0000F00A9E700140140001001402DE9F041B3
:1011B000984617460E460446069D1DE0681C1BD047
:1011C0002DB1FFF7A1F9A0EB0800A84214D92068BF
:1011D000C16821F4D071C1602068416921F001012A
:1011E0004161202084F8390084F83A00002084F816
:1011F00038000320BDE8F0812068006836EA00006E
:1012000004D00020B842D9D00020F3E70120F9E74C
:10121000FEE702E008C8121F08C1002AFAD1704791
:101220007047002001E001C1121F002AFBD1704766
:10123000FFF778F9FFF7FAFDFFF756FDFFF7C4FD5A
:101240004FF47A744FF496752346012203A10448A3
:10125000FFF7ECFC2846FFF769F8F5E758000000B7
:101260001000002000000000000000000102030444
:101270000607080900000000010203049C12000890
:10128000000000201000000012120008AC1200083C
:10129000100000204004000022120008010000009D
:0C12A00010000000000000000024F4001A
:040000050800019955
:00000001FF
