:020000040800F2
:1000000010040020AD010008FF0A0008790A00086A
:10001000FD0A0008B9020008FD0B000800000000FE
:10002000000000000000000000000000230B00089A
:10003000BB02000800000000210B0008250B00088F
:10004000C7010008C7010008C7010008C701000870
:10005000C7010008C7010008C7010008C701000860
:10006000C7010008C7010008C7010008C701000850
:10007000C7010008C7010008C7010008C701000840
:10008000C7010008C7010008C70100080000000000
:10009000000000000000000000000000C701000890
:1000A000C7010008C7010008C7010008C701000810
:1000B000C7010008C7010008C7010008C701000800
:1000C000C7010008C7010008C7010008C7010008F0
:1000D000C7010008C7010008C701000800000000B0
:1000E000C7010008C7010008C701000800000000A0
:1000F000000000000000000000000000C701000830
:1001000000000000C7010008C7010008C70100087F
:1001100000000000000000000000000000000000DF
:10012000C7010008C7010008C7010008C70100088F
:10013000C7010008000000000000000000000000EF
:10014000000000000000000000000000C7010008DF
:10015000C7010008C7010008C7010008C70100085F
:10016000C7010008C70100080000000000000000EF
:10017000000000000000000000000000000000007F
:1001800000000000C701000800000000000000009F
:10019000C7010008C7010008DFF80CD000F07AF8AA
:1001A000004800471D0C0008100400200648804746
:1001B00006480047FEE7FEE7FEE7FEE7FEE7FEE74C
:1001C000FEE7FEE7FEE7FEE7A90B0008990100083D
:1001D0002DE9F05F0546002092469B46884606467C
:1001E000814640241BE0284641464746224600F00F
:1001F00041F853465A46C01A914110D31146184649
:10020000224600F028F82D1A67EB01084F462246D7
:100210000120002100F01FF817EB00094E41201EBD
:10022000A4F10104DFDC484631462A464346BDE8D6
:10023000F09FD2B201E000F8012B491EFBD27047BB
:100240000022F6E710B513460A4604461946FFF7A2
:10025000F0FF204610BD202A04DB203A00FA02F10C
:10026000002070479140C2F1200320FA03F31943A4
:1002700090407047202A04DB203A21FA02F0002146
:10028000704721FA02F3D040C2F1200291400843A6
:1002900019467047064C074D06E0E06840F0010340
:1002A00094E8070098471034AC42F6D3FFF778FF84
:1002B0005C0D00087C0D0008FEE7704770B5044631
:1002C00000F0DCF80546601C02D0044800780444C5
:1002D00000F0D4F8401BA042FAD370BD000000200B
:1002E0002DE9F84FDFF860B100224FF001084FF020
:1002F000030A4FF00F090BF1040E00BF0B6808FA58
:1003000002F42340A3426ED14D68022D01D0122D7C
:100310000ED1D50800EB850CDCF820505607F70EFF
:1003200009FA07F6B5430E69BE402E43CCF82060AB
:10033000066855000F790AFA05FC07F0030726EA5C
:100340000C06AF40374307604E68012E05D0022EE1
:1003500003D0112E01D0122E0ED18668CF6826EA66
:100360000C06AF40374387604668A6430C79C4F358
:100370000014944034434460C6688C6826EA0C0636
:10038000AC403443C4604C68E40056D52F4C25681B
:1003900045F480452560246822F0030504F4804478
:1003A00000942B4C2E19D6F8084895072F0F09FA00
:1003B00007F5AC43274DA84201D1002515E0264D95
:1003C000A84201D1012510E0244DA84201D1022507
:1003D0000BE0234DA84201D1032506E0214DA842A0
:1003E00002D1042501E028E00725BD402543C6F8D9
:1003F0000858DBF800405D464E689C43F60300D584
:100400001C432C60DEF8004075464E689C43B603E2
:1004100000D51C432C600C4D08352C684E689C435D
:10042000F60200D51C432C60074D0C352C684E6835
:100430009C43B60200D51C432C60521C102AFFF4CA
:100440005DAFBDE8F88F0000003C01404438024039
:100450000030014000000240000402400008024059
:10046000000C0240001002400069084000D001204A
:1004700070470AB1816170470904FBE70148806851
:100480007047000000000020024881680278114493
:1004900081607047000000200B4810B5016841F4EE
:1004A00000710160016841F480610160016841F4FC
:1004B00080710160032000F061F8002000F006F870
:1004C00000F024F8002010BD003C024070B50D4D36
:1004D00004464FF47A712878B1FBF0F00A490968B4
:1004E000B1FBF0F000F0B4FA48B9102C07D20022AA
:1004F0002146501E00F022F800206C6070BD0120E3
:1005000070BD0000000000200C0000200A4808B563
:10051000016841F480410160006800F4804000906F
:100520000548001F016841F080510160006800F03B
:100530008050009008BD000044380240F0B40E4BDB
:100540001B680C46C3F30223C3F10705042D00D931
:100550000425191D072901D2002300E0DB1E012616
:1005600006FA05F1491E214099409E40761E16402C
:100570003143F0BC00F0C4BA0CED00E0064900F0D5
:10058000070208684FF6FF03184040EA0220034ABA
:1005900010430860704700000CED00E00000FA0511
:1005A0002DE9F0470E46050065D0DFF81481D8F834
:1005B0000000F7B200F00F00B04207D288F80070D8
:1005C000D8F8000000F00F00B04254D128683D4C2C
:1005D000810712D5400703D5206840F4E050206021
:1005E0002878000703D5206840F460402060206828
:1005F000A96820F0F000084320602878C0072DD0BB
:10060000304968680839012812D0022813D003281D
:1006100011D00968890700292DDA216821F003012A
:1006200001432160FFF72AFF814641F2883A0EE03C
:1006300009688903EFE709688901ECE7FFF71EFF06
:10064000A0EB0901514502D90320BDE8F0872068DD
:10065000696800F00C00B0EB810FEFD1D8F8001002
:10066000404601F00F01B14207D90770006800F061
:100670000F00B04201D00120E7E72878400705D5F8
:100680002068E96820F4E0500843206028780007DB
:1006900006D52068296920F4604040EAC100206046
:1006A00000F016F82168084AC1F30311515CC840F4
:1006B000064908600020FFF709FF0020C5E7000099
:1006C000003C0240083802404C0D00080C0000209D
:1006D000154810B5006810F00C02144813D01449E6
:1006E000042A0FD0082A0ED10F4C241F2268236839
:1006F00002F03F025B0207D52068C0F38810A0FB20
:10070000010106E0084610BD2168C1F38811A1FB74
:1007100000010023FFF75CFD2168C1F30141491C82
:100720004900B0FBF1F010BD083802400024F4008D
:1007300040787D012DE9F84F050076D02878DFF864
:10074000F8B2BE4CC00749D0DBF800105846C1F3E0
:100750008101012908D00068C0F3810002280AD174
:10076000201D0068400206D52068800336D56868E1
:100770000028E2D032E06868B0F5803F10D0B0F5D4
:10078000A02F206810D020F480302060206820F452
:10079000802020606868A0B1FFF770FE06460CE07C
:1007A000206840F48030F4E740F480202060F7E7D0
:1007B000FFF764FE801B642873D820688003F7D598
:1007C0000CE0FFF75BFE064605E000BFFFF756FEB4
:1007D000801B6428F0D820688003F7D42878DFF8DD
:1007E000608280074FF000093ED5DBF800105846C4
:1007F00011F00C0F09D00068C0F3810002280BD162
:100800008D48001F0068400206D42068800715D577
:10081000E868012809D111E0E868B8B10120C8F8FA
:100820000000FFF72BFE064605E002E1FFF726FE7B
:10083000801B0228C0D820688007F7D52068296966
:1008400020F0F80040EAC10020600DE0C8F80090F8
:10085000FFF714FE064604E0FFF710FE801B022897
:100860001FD820688007F7D42878000722D5724E59
:10087000744869696C3671B101210160FFF7FEFDB2
:10088000074604E0FFF7FAFDC01B022809D83068CC
:100890008007F7D50EE0C0F80090FFF7EFFD0746A0
:1008A00005E083E0FFF7EAFDC01B02287ED8306830
:1008B0008007F7D42878400768D5DFF87CA10027A7
:1008C0000AF1380ADAF80000C0000BD4DAF8001098
:1008D00041F08051CAF80010DAF80000012700F05A
:1008E00080500090584E3068C00510D4306840F4F5
:1008F00080703060FFF7C2FD009005E0FFF7BEFD9D
:100900000099401A022851D83068C005F6D54A4EE1
:10091000A868683601280FD00528306810D020F06C
:1009200001003060306820F004003060A868B8B181
:10093000FFF7A4FD00900FE0306840F00100F4E7FD
:1009400040F004003060F7E7FFF798FD0099411A86
:1009500041F28830814264D830688007F4D50EE0D7
:10096000FFF78CFD009007E0FFF788FD0099411A22
:1009700041F28830814254D830688007F4D42FB1D6
:10098000DAF8001021F08051CAF80010A869C0B34D
:10099000DBF80010C1F3810102294AD00228484641
:1009A00007D0C8F86000FFF769FD00E039E00546B0
:1009B0003AE04746C8F86000FFF760FD064604E0ED
:1009C000FFF75CFD801B02282BD820688001F7D43C
:1009D000D5E907010843A96A1C4A490802EB01410D
:1009E0006A6A41EA8211084395F82C1040EA0161D5
:1009F0001148001F016001203866FFF73FFD0546E2
:100A000005E014E0FFF73AFD401B022809D82068F2
:100A10008001F7D50BE000BFFFF730FD401B022837
:100A200002D90320BDE8F88F20688001F4D40020AB
:100A3000F8E70120F6E700000838024000380240DD
:100A400000004742800E4742007000400000FFFF58
:100A500010B5401EB0F1807F01D3012010BD4FF0D2
:100A6000E02460610F21601700F04AF80020A061C7
:100A700007202061002010BDFEE7000070B586B0A1
:100A800014216846FFF7DCFB19480024016841F097
:100A900004010160016801F004010591016841F061
:100AA000010101600068134E00F00100059022462C
:100AB00007213046FFF7DDFC4FF40050CDE900047C
:100AC000694630460294FFF70BFC07200090012591
:100AD000CDE90154694630460394FFF701FCCDE9A6
:100AE0000054694604480294FFF7FAFB06B070BD53
:100AF000303802400008024000000240FEE7704724
:100B00000907090E002806DA00F00F0000F1E020C6
:100B100080F8141D704700F1E02080F80014704741
:100B200070477047FFF7B0BC30B593B030216846CE
:100B3000FFF786FB14210CA8FFF782FB184800255D
:100B4000016841F080510160006800F08050119010
:100B50001448016841F4404101600068022400F437
:100B600040401190012003901020049000940694BE
:100B70000820CDE907506420CDE9090404200B903A
:100B80006846FFF7D7FD0CA90F2081E83100E0028D
:100B9000CDE90F0503210CA8FFF702FD13B030BD0E
:100BA00040380240007000401048016841F4700174
:100BB00001600F48016841F0010101600C4A002109
:100BC0000832116002680B4B1A400260031D0A4A8A
:100BD0001A60026822F48022026005480C3001602D
:100BE00002495806803908607047000088ED00E02F
:100BF00000380240FFFFF6FE10300024FEE702E05E
:100C000008C8121F08C1002AFAD170477047002097
:100C100001E001C1121F002AFBD17047FFF73CFC25
:100C2000FFF782FFFFF72AFFDFF81881464D002407
:100C30004FF400574FF4FA7639462846FFF714FC74
:100C400008BB3046641CFFF739FB012C04D0022C92
:100C50000AD0032C18D027E0012211462846FFF7BE
:100C600008FC0022022106E0012202212846FFF7AB
:100C700000FC002201212846FFF7FBFB0022042193
:100C80002846FFF7F6FB0FE0012204212846FFF774
:100C9000F0FB002202212846FFF7EBFB0022012196
:100CA0002846FFF7E6FB002401214046FFF7DCFB66
:100CB0000128C1D1012204212846FFF7DAFB0022D6
:100CC00002212846FFF7D5FB002201212846FFF725
:100CD000D0FB3046FFF7F2FA012202212846FFF747
:100CE000C8FB002201212846FFF7C3FB0022042194
:100CF0002846FFF7BEFB3046FFF7E0FA0122114617
:100D00002846FFF7B6FB002202212846FFF7B1FB79
:100D1000002204212846FFF7ACFB3046FFF7CEFA4D
:100D2000002202212846FFF7A4FB002204212846C6
:100D3000FFF79FFB002201212846FFF79AFB0024C2
:100D40007AE70000000002400008024000000000B6
:100D50000000000001020304060708097C0D0008DA
:100D60000000002010000000FE0B00088C0D0008A1
:100D700010000020000400000E0C0008010000001C
:0C0D800010000000000000000024F4003F
:040000050800019955
:00000001FF
