:020000040800F2
:10000000D8040020AD010008A31100082B1000083F
:10001000A1110008F5020008ED160008000000001C
:10002000000000000000000000000000C7110008F0
:10003000F702000800000000C5110008C9110008FF
:10004000C7010008C7010008C7010008C701000870
:10005000C7010008C7010008C7010008C701000860
:10006000C7010008C7010008C7010008C701000850
:10007000C7010008C7010008C7010008C701000840
:10008000C7010008C7010008C70100080000000000
:10009000000000000000000000000000C701000890
:1000A000C7010008A1120008C7010008C701000825
:1000B000B9120008C7010008C7010008C7010008FD
:1000C000C7010008C7010008C7010008C7010008F0
:1000D000C7010008C7010008C701000800000000B0
:1000E000C7010008C7010008C701000800000000A0
:1000F000000000000000000000000000C701000830
:1001000000000000C7010008C7010008C70100087F
:1001100000000000000000000000000000000000DF
:10012000C7010008C7010008C7010008C70100088F
:10013000C7010008000000000000000000000000EF
:10014000000000000000000000000000C7010008DF
:10015000C7010008C7010008C7010008C70100085F
:10016000C7010008C70100080000000000000000EF
:10017000000000000000000000000000000000007F
:1001800000000000C701000800000000000000009F
:10019000C7010008C7010008DFF80CD000F098F88C
:1001A00000480047D11C0008D804002006488047BA
:1001B00006480047FEE7FEE7FEE7FEE7FEE7FEE74C
:1001C000FEE7FEE7FEE7FEE74D1200089901000892
:1001D0002DE9F05F0546002092469B46884606467C
:1001E000814640241BE0284641464746224600F00F
:1001F0005EF853465A46C01A914110D3114618462C
:10020000224600F045F82D1A67EB01084F462246BA
:100210000120002100F03CF817EB00094E41201EA0
:10022000A4F10104DFDC484631462A464346BDE8D6
:10023000F09FD2B201E000F8012B491EFBD27047BB
:100240000022F6E710B513460A4604461946FFF7A2
:10025000F0FF204610BD421C10F8011B0029FBD105
:10026000801A704730B50B46014600202022012439
:1002700009E021FA02F59D4205D303FA02F5491B74
:1002800004FA02F52844151EA2F10102F1DC30BD8A
:10029000202A04DB203A00FA02F100207047914046
:1002A000C2F1200320FA03F3194390407047202A3B
:1002B00004DB203A21FA02F00021704721FA02F310
:1002C000D040C2F120029140084319467047000017
:1002D000064C074D06E0E06840F0010394E8070093
:1002E00098471034AC42F6D3FFF75AFF181D0008A8
:1002F000381D0008FEE770477047000070B50446DF
:1003000000F0DCF80546601C02D004480078044484
:1003100000F0D4F8401BA042FAD370BD0C000020BE
:100320002DE9F84FDFF860B100224FF001084FF0DF
:10033000030A4FF00F090BF1040E00BF0B6808FA17
:1003400002F42340A3426ED14D68022D01D0122D3C
:100350000ED1D50800EB850CDCF820505607F70EBF
:1003600009FA07F6B5430E69BE402E43CCF820606B
:10037000066855000F790AFA05FC07F0030726EA1C
:100380000C06AF40374307604E68012E05D0022EA1
:1003900003D0112E01D0122E0ED18668CF6826EA26
:1003A0000C06AF40374387604668A6430C79C4F318
:1003B0000014944034434460C6688C6826EA0C06F6
:1003C000AC403443C4604C68E40056D52F4C2568DB
:1003D00045F480452560246822F0030504F4804438
:1003E00000942B4C2E19D6F8084895072F0F09FAC0
:1003F00007F5AC43274DA84201D1002515E0264D55
:10040000A84201D1012510E0244DA84201D10225C6
:100410000BE0234DA84201D1032506E0214DA8425F
:1004200002D1042501E028E00725BD402543C6F898
:100430000858DBF800405D464E689C43F60300D543
:100440001C432C60DEF8004075464E689C43B603A2
:1004500000D51C432C600C4D08352C684E689C431D
:10046000F60200D51C432C60074D0C352C684E68F5
:100470009C43B60200D51C432C60521C102AFFF48A
:100480005DAFBDE8F88F0000003C014044380240F9
:100490000030014000000240000402400008024019
:1004A000000C0240001002400069084000D001200A
:1004B00070470AB1816170470904FBE70148806811
:1004C000704700000C000020024881680278114447
:1004D000816070470C0000200B4810B5016841F4A2
:1004E00000710160016841F480610160016841F4BC
:1004F00080710160032000F06FF8002000F006F822
:1005000000F024F8002010BD003C024070B50D4DF5
:1005100004464FF47A712878B1FBF0F00A49096873
:10052000B1FBF0F000F0E0FA48B9102C07D200223D
:100530002146501E00F030F800206C6070BD012094
:1005400070BD00000C000020180000200B4882B095
:10055000016841F480410160006800F4804000902F
:100560000648001F016841F080510160006800F0FA
:1005700080500090052002B000F02EB844380240B0
:1005800000F01F02012191404009800000F1E020AD
:10059000C0F8001170470000F0B40E4B1B680C4609
:1005A000C3F30223C3F10705042D00D90425191D47
:1005B000072901D2002300E0DB1E012606FA05F11F
:1005C000491E214099409E40761E16403143F0BCA2
:1005D00000F0E8BD0CED00E0064900F007020868F5
:1005E0004FF6FF03184040EA0220034A1043086018
:1005F000704700000CED00E00000FA052DE9F0471F
:100600000E46050065D0DFF81481D8F80000F7B277
:1006100000F00F00B04207D288F80070D8F8000050
:1006200000F00F00B04254D128683D4C810712D52C
:10063000400703D5206840F4E05020602878000788
:1006400003D5206840F4604020602068A96820F04D
:10065000F000084320602878C0072DD03049686832
:100660000839012812D0022813D0032811D00968B4
:10067000890700292DDA216821F003010143216057
:10068000FFF71CFF814641F2883A0EE009688903B2
:10069000EFE709688901ECE7FFF710FFA0EB09011C
:1006A000514502D90320BDE8F0872068696800F051
:1006B0000C00B0EB810FEFD1D8F80010404601F0EC
:1006C0000F01B14207D90770006800F00F00B04277
:1006D00001D00120E7E72878400705D52068E968C0
:1006E00020F4E050084320602878000706D52068F1
:1006F000296920F4604040EAC100206000F036F82B
:100700002168084AC1F30311515CC84006490860DA
:100710000020FFF7FBFE0020C5E70000003C024080
:1007200008380240001D0008180000200448054950
:1007300000680968044AC1F38221515CC8407047CF
:100740001800002008380240101D00080448054920
:1007500000680968044AC1F34231515CC8407047DF
:100760001800002008380240101D0008154810B578
:10077000006810F00C02144813D04110042A0FD066
:10078000082A0ED10F4C241F2268236802F03F0272
:100790005B0207D52068C0F38810A0FB010106E0CA
:1007A000084610BD2168C1F38811A1FB0001002398
:1007B000FFF70EFD2168C1F30141491C4900B0FB60
:1007C000F1F010BD083802400024F4002DE9F84F84
:1007D000050076D02878DFF8F8B2BE4CC00749D0C3
:1007E000DBF800105846C1F38101012908D00068E8
:1007F000C0F3810002280AD1201D0068400206D5FE
:100800002068800336D568680028E2D032E0686846
:10081000B0F5803F10D0B0F5A02F206810D020F4A4
:1008200080302060206820F4802020606868A0B1BB
:10083000FFF744FE06460CE0206840F48030F4E701
:1008400040F480202060F7E7FFF738FE801B642823
:1008500073D820688003F7D50CE0FFF72FFE06461B
:1008600005E000BFFFF72AFE801B6428F0D820684F
:100870008003F7D42878DFF8608280074FF0000902
:100880003ED5DBF80010584611F00C0F09D0006877
:10089000C0F3810002280BD18D48001F0068400280
:1008A00006D42068800715D5E868012809D111E031
:1008B000E868B8B10120C8F80000FFF7FFFD064660
:1008C00005E002E1FFF7FAFD801B0228C0D820688E
:1008D0008007F7D52068296920F0F80040EAC100B8
:1008E00020600DE0C8F80090FFF7E8FD064604E040
:1008F000FFF7E4FD801B02281FD820688007F7D48B
:100900002878000722D5724E744869696C3671B137
:1009100001210160FFF7D2FD074604E0FFF7CEFD9D
:10092000C01B022809D830688007F7D50EE0C0F850
:100930000090FFF7C3FD074605E083E0FFF7BEFD2B
:10094000C01B02287ED830688007F7D4287840077B
:1009500068D5DFF87CA100270AF1380ADAF8000030
:10096000C0000BD4DAF8001041F08051CAF8001032
:10097000DAF80000012700F080500090584E3068EF
:10098000C00510D4306840F480703060FFF796FDE9
:10099000009005E0FFF792FD0099401A022851D817
:1009A0003068C005F6D54A4EA868683601280FD0D1
:1009B0000528306810D020F001003060306820F049
:1009C00004003060A868B8B1FFF778FD00900FE030
:1009D000306840F00100F4E740F004003060F7E7D1
:1009E000FFF76CFD0099411A41F28830814264D8CA
:1009F00030688007F4D50EE0FFF760FD009007E057
:100A0000FFF75CFD0099411A41F28830814254D8C9
:100A100030688007F4D42FB1DAF8001021F080514B
:100A2000CAF80010A869C0B3DBF80010C1F3810157
:100A300002294AD00228484607D0C8F86000FFF7CC
:100A40003DFD00E039E005463AE04746C8F8600061
:100A5000FFF734FD064604E0FFF730FD801B022857
:100A60002BD820688001F7D4D5E907010843A96A8B
:100A70001C4A490802EB01416A6A41EA82110843B3
:100A800095F82C1040EA01611148001F0160012017
:100A90003866FFF713FD054605E014E0FFF70EFD8D
:100AA000401B022809D820688001F7D50BE000BF61
:100AB000FFF704FD401B022802D90320BDE8F88F90
:100AC00020688001F4D40020F8E70120F6E7000058
:100AD000083802400038024000004742800E47427A
:100AE000007000400000FFFF10B5401EB0F1807F95
:100AF00001D3012010BD4FF0E02460610F21601789
:100B000000F050FB0020A06107202061002010BDF4
:100B10007047704730B590F83820012A20D0012264
:100B200080F83820022380F8393003685C6824F0AC
:100B300070045C6003685C680D682C435C6003684B
:100B40009C6824F080049C6003689C6849680C439E
:100B50009C6080F83920002180F83810084630BDAC
:100B6000022030BD10B5040003D094F8390010B154
:100B700007E0012010BD002084F83800204600F076
:100B80000DF8022084F83900211D206800F0A8FB30
:100B9000012084F83900002010BD000008B500686D
:100BA000154988420FD11548016841F001010160E3
:100BB0000068002200F00100009001211920FFF7D9
:100BC000EBFC192012E0B0F1804F13D10B48001F4D
:100BD000016841F0010101600068002200F001009D
:100BE000009002211C20FFF7D7FC1C20BDE8084024
:100BF000FFF7C6BC08BD00000000014044380240B9
:100C00000168CA6842F00102CA600068016841F0E8
:100C100001010160002070470168CA6822F00102EA
:100C2000CA600068016A41F21112114207D1016ADB
:100C30009210114203D1016821F0010101600020EE
:100C4000704770B5044690F83800012817D0012588
:100C500084F83850022084F839002068826822F035
:100C6000770222F47F4282600868502837D00DDC7A
:100C7000202859D005DC88B3102841D151E002204A
:100C800070BD302853D040283AD13FE060282ED0A4
:100C900070280BD0B0F5805F03D0B0F5005F2FD186
:100CA00010E02068816821F0070115E0CB68D1E9E8
:100CB0000121206800F05CFB2168886840F0770023
:100CC00088601DE0CB68D1E90121206800F050FB6D
:100CD0002068816841F48041816011E01EE0CA68AB
:100CE0004968206800F056FB5021206806E0CA6879
:100CF0004968206800F05FFB6021206800F042FB3B
:100D000084F83950002084F8380070BDCA684968FA
:100D1000206800F03FFB40212068EFE700212068B9
:100D2000ECE710212068E9E720212068E6E7302180
:100D30002068E3E7704770B50446006801694FF02A
:100D40000005C943890715D4C168C943890711D46F
:100D5000E91E016101202076206880698007204615
:100D600002D0FFF7E7FF04E000F098F8204600F01B
:100D700096F8257620680169C943490717D4C168E8
:100D8000C943490713D46FF00401016102202076A2
:100D90002068806910F4407F204602D0FFF7CAFF28
:100DA00004E000F07BF8204600F079F82576206812
:100DB0000169C943090716D4C168C943090712D498
:100DC0006FF008010161042020762068C069800767
:100DD000204602D0FFF7AEFF04E000F05FF82046A7
:100DE00000F05DF8257620680169C943C90617D46B
:100DF000C168C943C90613D46FF01001016108200E
:100E000020762068C06910F4407F204602D0FFF7AA
:100E100091FF04E000F042F8204600F040F825760B
:100E200020680169C943C90708D1C168C943C90716
:100E300004D1891E0161204600F032F82068016962
:100E4000C943090609D4C168C943090605D46FF02E
:100E5000800101612046FFF75BFE20680169C943FC
:100E6000490609D4C168C943490605D46FF0400159
:100E70000161204600F015F820680169C943890620
:100E80000BD4C168C943890607D46FF02001016102
:100E90002046BDE87040FFF73CBE70BD704770470C
:100EA0007047704770B5040004D094F839000025ED
:100EB00010B106E0012070BD84F83850204600F0E3
:100EC00023F8242084F839002068C16821F40051F7
:100ED000C160204600F082FA2068016921F4904147
:100EE00001612068416921F02A0141612068C168DF
:100EF00041F40051C160E563202084F8390084F892
:100F00003A00002070BD000010B586B004461421E0
:100F10006846FFF795F913492068884220D11248A6
:100F2000016841F400310160006800F40030059070
:100F30000D481038016841F0010101600068694600
:100F400000F0010005900C2000900220019001208B
:100F5000029003200390072004900448FFF7E0F973
:100F600006B010BD0044004040380240000002407E
:100F70002DE9F843044690F839001F4616460D4601
:100F8000202850D1A5B19EB194F8380001284AD04C
:100F9000012084F838004FF00008C4F83C8021207C
:100FA00084F83900FFF78AFAA6848146E68426E0B1
:100FB0000120BDE8F883E08C401EE084A0684B4629
:100FC000B0F5805F4FF000024FF08001204600979F
:100FD00003D000F059FBE8B90DE000F055FBC8B9AB
:100FE00028882168C0F308004860206908B16D1C9A
:100FF00005E0AD1C03E0216815F8010B4860E08CAA
:101000000028D8D14B46002240212046009700F00E
:101010003BFB08B10320CCE7202084F8390084F89A
:1010200038800020C5E70220C3E7FEE730B587B06F
:1010300014216846FFF704F916480024016841F0BE
:1010400004010160016801F004010591016841F0AB
:10105000010101600068104D00F00100059022467A
:1010600007212846FFF725FA4FF40050CDE9000488
:10107000694628460294FFF753F9072000900120A3
:10108000CDE90104694628460394FFF749F907B002
:1010900030BD0000303802400008024010B586B074
:1010A0000024174800940194029403940494134973
:1010B000059401606321C0E9011440F2E731C0E901
:1010C00003144461FFF74EFD08B1FFF715F94FF423
:1010D0008050009069460A48FFF7B3FD08B1FFF75A
:1010E0000BF9049404A906480594FFF713FD0028A2
:1010F00001D0FFF701F906B010BD0000000001406B
:101100001C00002010B586B00024164800940194FD
:101110000294039404944FF080410594016063218C
:10112000C0E9011449F63F41C0E90314FFF71AFD75
:1011300008B1FFF7E1F84FF4805000906946094884
:10114000FFF77FFD08B1FFF7D7F8049404A905481D
:101150000594FFF7DFFC002801D0FFF7CDF806B0BB
:1011600010BD0000580000200C4810B50A4901606D
:101170004FF4E1314160002181600C22C160C0E97F
:1011800004128161C161FFF78DFE002803D0BDE824
:101190001040FFF7B1B810BD00440040940000209B
:1011A000FEE770470907090E002806DA00F00F0075
:1011B00000F1E02080F8141D704700F1E02080F875
:1011C0000014704770477047FFF77EB930B593B091
:1011D00030216846FFF734F814210CA8FFF730F8E7
:1011E00018480025016841F080510160006800F056
:1011F000805011901448016841F44041016000683A
:10120000022400F44040119001200390102004902B
:10121000009406940820CDE907506420CDE9090424
:1012200004200B906846FFF7D1FA0CA90F2081E843
:101230003100E002CDE90F0503210CA8FFF7DEF92C
:1012400013B030BD403802400070004010480168C3
:1012500041F4700101600F48016841F00101016033
:101260000C4A00210832116002680B4B1A400260E0
:10127000031D0A4A1A60026822F4802202600548AF
:101280000C30016002495806803908607047000040
:1012900088ED00E000380240FFFFF6FE1030002429
:1012A00003480168491C01600248FFF744BD000083
:1012B000080000201C00002010B50649064A0868F6
:1012C0001278801A086000F0DDFBBDE8104003488A
:1012D000FFF731BD0800002000000020580000206A
:1012E000F0B502681B4B1C4C9F031C4D1C4E9842D2
:1012F00007D0B84205D0A04203D0A84201D0B042E6
:1013000004D122F0700C4A6842EA0C02984210D0D4
:10131000B8420ED0A0420CD0A8420AD0B04208D0A9
:10132000104CA04205D0104CA04202D00F4CA0425D
:1013300003D122F44074CA68224302608A68C26200
:101340000A688262984201D1096901630121416101
:10135000F0BD000000000140000400400008004013
:10136000000C0040004001400044014000480140A2
:1013700010B5846842EA032224F47F440A432243DE
:10138000826010BD826822F070020A4342F00701B9
:101390008160704710B5036A046A24F00104046296
:1013A000846924F0F00444EA021423F00A020A4398
:1013B0008461026210BD10B5036A23F0100303625A
:1013C0008369046A23F4704343EA023224F0A003E1
:1013D00043EA01118261016210BD00002DE9F04174
:1013E00004460068016921F44052E168114301613B
:1013F0002168C86849F20C6290432369A268E569D4
:101400001A4363692B431A430243CA60216848693F
:1014100020F44072A06910434861E1696425B1F588
:10142000004F9748974A21684FF032083FD09142C9
:1014300001D081427CD1FFF789F900EBC00101EBBB
:10144000001061688900B0FBF1F6FFF77FF900EB4F
:10145000C00101EB001061688900B0FBF1F0B0FB46
:10146000F5F06FF01801484306EB800108EB01101E
:10147000B0FBF5F000F0F006FFF768F900EBC001F3
:1014800001EB001061688900B0FBF1F0B0FBF5F0F2
:1014900006EB0016FFF75AF900EBC00101EB001054
:1014A00061688900B0FBF1F7FFF750F9D2E0914293
:1014B00001D081423DD1FFF749F900EBC00101EBBA
:1014C000001061684900B0FBF1F0B0FBF5F00601D7
:1014D000FFF73CF900EBC00101EB00106168490027
:1014E000B0FBF1F7FFF732F900EBC00101EB0010A0
:1014F00061684900B0FBF1F0B0FBF5F06FF0180146
:10150000484307EB800108EBC100B0FBF5F000F0A9
:10151000F80006EB4006FFF719F900EBC00101EBFC
:10152000001061684900B0FBF1F7FFF70FF93CE0EC
:1015300055E0FFF7FBF800EBC00101EB001061681C
:101540004900B0FBF1F0B0FBF5F00601FFF7EEF853
:1015500000EBC00101EB001061684900B0FBF1F73E
:10156000FFF7E4F800EBC00101EB001061684900EF
:10157000B0FBF1F0B0FBF5F06FF01801484307EB5A
:10158000800108EBC100B0FBF5F000F0F80006EBBD
:101590004006FFF7CBF800EBC00101EB00106168DB
:1015A0004900B0FBF1F7FFF7C1F800EBC00101EB18
:1015B000001061684900B0FBF1F0B0FBF5F06FF08E
:1015C0001801484307EB800108EBC100B0FBF5F0C0
:1015D00000F00700216830448860BDE8F081FFF723
:1015E000A5F800EBC00101EB001061688900B0FBB9
:1015F000F1F6FFF79BF800EBC00101EB001061680A
:101600008900B0FBF1F0B0FBF5F06FF01801484332
:1016100006EB800108EB0110B0FBF5F000F0F006DE
:10162000FFF784F800EBC00101EB0010616889004E
:10163000B0FBF1F0B0FBF5F006EB0016FFF776F823
:1016400000EBC00101EB001061688900B0FBF1F70D
:10165000FFF76CF800EBC00101EB00106168890036
:10166000B0FBF1F0B0FBF5F06FF01801484307EB69
:10167000800108EB0110B0FBF5F000F00F00A9E7C6
:1016800000140140001001402DE9F0419846174632
:101690000E460446069D1DE0681C1BD02DB1FEF7CA
:1016A0000DFFA0EB0800A84214D92068C16821F4FE
:1016B000D071C1602068416921F0010141612020A1
:1016C00084F8390084F83A00002084F838000320B8
:1016D000BDE8F0812068006836EA000004D00020F0
:1016E000B842D9D00020F3E70120F9E7FEE7000077
:1016F0000FB4084B10B504A902AA039800F01CF817
:10170000044602A9002000F0B8F9204610BC5DF89C
:1017100014FB00007B1A000802E008C8121F08C171
:10172000002AFAD170477047002001E001C1121F62
:10173000002AFBD1704700002DE9FF4F8BB088468F
:101740000546002606E025280BD0DDE90D1290475E
:101750006D1C761C28780028F5D10FB03046BDE806
:10176000F08F0024A146A2460122AE4900E00443C6
:1017700015F8013F203B02FA03F00842F7D1287820
:101780002A2810D06FF02F022878A0F13001092903
:1017900015D809EB890102EB410144F0020400EB8A
:1017A00001096D1CF0E758F8041B5FEA010903D535
:1017B00044F40054C9F1000944F002046D1C287877
:1017C0002E2817D115F8010F44F004042A280ED052
:1017D0006FF02F022878A0F1300109290AD80AEB0E
:1017E0008A0102EB410100EB010A6D1CF2E758F897
:1017F00004AB6D1C28786C280FD006DC4C2817D061
:1018000068280DD06A2814D104E0742810D07A28F2
:101810000FD10DE044F400140AE044F4801401E018
:1018200044F440146978814202D104F580146D1C9F
:101830006D1C2878692865D006DC00288DD06328C7
:1018400027D0642806D15DE06E2808D073282AD0FE
:10185000752877D0DDE90D129047761CE0E0C4F3DF
:101860000250022809D003280DD0D8F8001004280F
:101870000DD00E6008F10408D2E0D8F80010F2177D
:10188000C1E90062F6E7D8F800100E80F2E70E70AA
:10189000F0E718F8041B8DF8001000208DF8010007
:1018A000EB46012003E058F804BB4FF0FF3061071E
:1018B0004FF0000701D40AE07F1C57450DDA87423C
:1018C000FADB1BF807100029F6D106E07F1C8742DF
:1018D000FCDB1BF807100029F8D1DDE90D23A9EB8B
:1018E00007008146214600F0B1F83044C61904E0F3
:1018F000DDE90D121BF8010B90477F1EF8D221463F
:10190000484688E058F8040BC4F302514FF00A0B24
:10191000032900D100B2042900D140B2002802DA24
:1019200040422D2102E0210505D52B218DF8241000
:10193000012104E006E0E10710D02021F6E708AF1E
:10194000089113E058F8040BC4F302514FF00A0B4E
:10195000032900D180B2042900D1C0B20021EEE7F2
:101960005946FEF77FFC303107F8011D0028F7D1FA
:10197000ADEB070000F1200B600702D524F48034A2
:1019800001E04FF0010ADA4502DDAAEB0B0000E0AE
:101990000020824600EB0B0108980144A9EB0100EE
:1019A0000A90E00306D4DDE90D2321460A9800F0F1
:1019B0004DF806444FF0000908E009A911F80900A4
:1019C000DDE90D12904709F10109761C0899894556
:1019D000F3DBE0030CD5DDE90D2321460A9800F086
:1019E00035F8064404E0DDE90D1230209047761CFE
:1019F000BAF10001AAF1010AF5DC05E0DDE90D12FA
:101A000017F8010B9047761CBBF10001ABF1010BFD
:101A1000F4DC0A982146DDE90D2300F005F80644C0
:101A20006D1C97E6092801002DE9F04104460025C8
:101A30001E461746880404D405E039462020B047E6
:101A40006D1C641EF9D52846BDE8F0812DE9F041F2
:101A5000044600251E469046C80301D5302700E005
:101A60002027880404D505E041463846B0476D1C60
:101A7000641EF9D52846BDE8F0810A68531C0B6046
:101A8000107070472DE9FE4F0A27B0FBF7F14FF0B9
:101A90006408B1FBF8F2044608FB12104FF47A7A9E
:101AA000B4FBFAF13C25B1FBF5F205FB12134EF63F
:101AB0006029B4FBF9F1B1FBF5F205FB12120090BD
:101AC00075A101A8FFF714FE774E30680168C9437D
:101AD0004906FBD401A8FEF7BEFB82B2534601A91A
:101AE0007148FFF745FA4FF400517048FEF7DCFCEF
:101AF000002843D16E494FF4FA7B0868401C086007
:101B00006A49143101283BD00622022864D00328F8
:101B10007ED004287DD0052830D107200860B4FB92
:101B2000F7F1B1FBF8F208FB12105746B4FBF7F1DE
:101B3000B1FBF5F205FB1213B4FBF9F1B1FBF5F2C1
:101B400005FB121200905BA101A8FFF7D1FD3068E0
:101B50000168C9434906FBD401A8FEF77CFB82B2A9
:101B60003B4601A95048FFF703FA5846FEF7C6FB6B
:101B70005548FFF751F85548FFF74EF8BDE8FE8F7E
:101B800004200860B4FBF7F1B1FBF8F208FB121077
:101B90005746B4FBF7F1B1FBF5F205FB1213B4FBAA
:101BA000F9F1B1FBF5F205FB1212009041A101A879
:101BB000FFF79EFD30680168C9434906FBD401A8C0
:101BC000FEF749FB82B23B4601A93748FFF7D0F93F
:101BD0005846FEF793FBD1E70A60B4FBF7F2B2FB7D
:101BE000F8F108FB11205746B4FBF7F1B1FBF5F211
:101BF00005FB1213B4FBF9F1B1FBF5F205FB121270
:101C000000902CA101A8FFF773FD3068016801E086
:101C100004E022E0C9434906F8D4D0E70A60B4FBE7
:101C2000F7F1B1FBF8F208FB12105746B4FBF7F1DD
:101C3000B1FBF5F205FB1213B4FBF9F1B1FBF5F2C0
:101C400005FB121200901BA101A8FFF751FD30689F
:101C50000168C9434906FBD4B1E70A60B4FBF7F158
:101C6000B1FBF8F208FB12105746B4FBF7F1B1FBD9
:101C7000F5F205FB1213B4FBF9F1B1FBF5F205FB2C
:101C8000121200900BA101A8FFF732FD3068016825
:101C9000C9434906FBD492E7253032643A253032F5
:101CA000643A253032640D009400002000080240A0
:101CB00004000020253032643A253032643A253061
:101CC00032640D0A000000001C00002058000020B3
:101CD000FEF702FCFFF77AFAFFF7A8F9FFF7DEF943
:101CE000FFF710FAFFF740FA0348FEF789FF0348B1
:101CF000FEF786FFFEE700001C00002058000020D1
:101D000000000000000000000102030406070809AB
:101D10000000000001020304381D0008000000203C
:101D20001C00000018170008541D00081C000020AB
:101D3000BC04000028170008080000000000000094
:101D40000000000001000000100000000000000082
:041D50000024F40077
:040000050800019955
:00000001FF
