:020000040800F2
:1000000018050020AD010008931600088F140008A1
:1000100091160008190400082D1C000800000000BB
:10002000000000000000000000000000B7160008FB
:100030001B04000800000000B5160008B9160008EF
:10004000C7010008C7010008C7010008C701000870
:10005000C7010008C7010008C7010008C701000860
:10006000C7010008C7010008C7010008C701000850
:10007000C7010008C7010008C7010008C701000840
:10008000C7010008C7010008C70100080000000000
:10009000000000000000000000000000C701000890
:1000A000C701000891170008C7010008C701000830
:1000B0009D170008C7010008C7010008C701000814
:1000C000C7010008C7010008C7010008C7010008F0
:1000D000C7010008C7010008C701000800000000B0
:1000E000C7010008C7010008C701000800000000A0
:1000F000000000000000000000000000C701000830
:1001000000000000C7010008C7010008C70100087F
:1001100000000000000000000000000000000000DF
:10012000C7010008C7010008C7010008C70100088F
:10013000C7010008000000000000000000000000EF
:10014000000000000000000000000000C7010008DF
:10015000C7010008C7010008C7010008C70100085F
:10016000C7010008C70100080000000000000000EF
:10017000000000000000000000000000000000007F
:1001800000000000C701000800000000000000009F
:10019000C7010008C7010008DFF80CD000F098F88C
:1001A00000480047091E000818050020064880473F
:1001B00006480047FEE7FEE7FEE7FEE7FEE7FEE74C
:1001C000FEE7FEE7FEE7FEE73D170008990100089D
:1001D0002DE9F05F0546002092469B46884606467C
:1001E000814640241BE0284641464746224600F00F
:1001F0005EF853465A46C01A914110D3114618462C
:10020000224600F045F82D1A67EB01084F462246BA
:100210000120002100F03CF817EB00094E41201EA0
:10022000A4F10104DFDC484631462A464346BDE8D6
:10023000F09FD2B201E000F8012B491EFBD27047BB
:100240000022F6E710B513460A4604461946FFF7A2
:10025000F0FF204610BD421C10F8011B0029FBD105
:10026000801A704730B50B46014600202022012439
:1002700009E021FA02F59D4205D303FA02F5491B74
:1002800004FA02F52844151EA2F10102F1DC30BD8A
:10029000202A04DB203A00FA02F100207047914046
:1002A000C2F1200320FA03F3194390407047202A3B
:1002B00004DB203A21FA02F00021704721FA02F310
:1002C000D040C2F120029140084319467047000017
:1002D000064C074D06E0E06840F0010394E8070093
:1002E00098471034AC42F6D3FFF75AFFB41E00080B
:1002F000D41E0008454910B54A6822F440324A60CD
:100300004A6843681A434A6001684A6822F4807266
:100310004A6001684A68036942EA03224A60016848
:100320004A6822F040724A6001684A6883681A434A
:100330004A6001688A6822F400628A6001688A68FB
:10034000C3681A438A60816A6FF07062D1420168A3
:100350008A6822F070628A6001688A680CD0836AB9
:100360001A438A6001688A6822F040528A600168F4
:100370008A68C36A1A4301E022F040528A60016829
:100380008A6822F002028A6001688A68836942EA08
:1003900043028A60016A002901684A680FD042F46A
:1003A00000624A6001684A6822F460424A6001685B
:1003B0004A68174C436A04EB43331A4301E022F4C2
:1003C00000624A600168CA6A22F47002CA62016867
:1003D000CA6A838B0F4C04EB03531A43CA62016849
:1003E0008A6822F400728A6001688A68036B42EAB4
:1003F00043228A6001688A6822F480628A60016808
:100400008A68406942EA8020886010BD002301406C
:1004100000E0FFFF0000F0FFFEE7704770470000BC
:1004200078B50024009490F83C20012A19D00122CC
:1004300080F83C200A6807230568092A13D9EE686A
:100440000A3A02EB420293409E43EE600A788B68C0
:100450000A3A02EB420293400268D5682B43D3600C
:1004600010E0022078BD2E6902EB420293409E43C9
:100470002E610A788B6802EB42029340026815698C
:100480002B4313614A681F23072A13D205686E6B3A
:10049000521E02EB820293409E436E630B790A88E0
:1004A0005B1E92B203EB83039A4003685D6B2A43A1
:1004B0005A6327E005680D2A12D22E6BD21F02EB79
:1004C000820293409E432E630B790A88DB1F92B20F
:1004D00003EB83039A4003681D6B2A431A6311E000
:1004E000EE6A0D3A02EB820293409E43EE620B7974
:1004F0000A880D3B92B203EB83039A400368DD6ADE
:100500002A43DA62174B0568154A9D4206D10D68E9
:10051000122D03D1556845F48005556005689D424C
:1005200019D1114D0B68AB4201D0112B13D1536877
:1005300043F4000353600968A9420CD10B490C4AEB
:100540000968B1FBF2F101EB8101490000E0491EAD
:1005500000910029FBD180F83C40002078BD0000CC
:100560000023014000200140120000101000002074
:1005700040420F000068C06C704770B504004FF037
:10058000000503D0206C002610B107E0012070BDEB
:10059000666484F83C60204600F01AF8206CC006BF
:1005A00010D4206C20F4885040F0020020642046D3
:1005B000FFF7A0FE6664206C20F0020040F001000E
:1005C000206400E0012584F83C60284670BD0000EE
:1005D00010B586B0044614216846FFF731FE114974
:1005E000206888421CD110480021026842F48072C1
:1005F0000260006800F4807005900B4814380268AF
:1006000042F002020260006800F002000590012042
:1006100000900320CDE901016946044800F0CAF8C2
:1006200006B010BD002001404438024000040240E2
:100630002DE9F041044600680D4681684FF000073F
:1006400049050BD58068C00508D5206C40F0200016
:10065000206484F83C700120BDE8F08100F074F95A
:1006600006460FE0681C0DD025B100F06DF9801B27
:10067000A84207D9206C40F00400206484F83C7044
:100680000320E9E7206800688007EBD521686FF058
:1006900012000860206C40F40070206420688168BB
:1006A00011F0405F13D1A16989B9C16A11F4700FCB
:1006B00002D0806840050AD4206C20F48070206449
:1006C000206CC00403D4206C40F0010020640020A2
:1006D000C2E7000018B50021009190F83C20012AE3
:1006E00007D0012280F83C2002689368DB0702D023
:1006F00011E0022018BD936843F001039360204A83
:10070000204B1268B2FBF3F202EB420200E0521EF1
:100710000092002AFBD102689368DB072DD0036C9E
:1007200040F20164A34343F48073036453685B05A0
:1007300005D5036C23F4005343F480530364036C26
:10074000DB0404D5436C23F00603436400E04164FA
:1007500080F83C100C496FF0220313604968006870
:10076000C90602D00949884207D1816811F0405F6B
:1007700003D1816841F080418160002018BD0000F4
:100780001000002040420F000023014000200140E3
:1007900070B5044600F0D8F80546601C02D0044845
:1007A0000078044400F0D0F8401BA042FAD370BD9A
:1007B000040000202DE9F84FDFF860B100224FF06F
:1007C00001084FF0030A4FF00F090BF1040E00BFB0
:1007D0000B6808FA02F42340A3426ED14D68022D43
:1007E00001D0122D0ED1D50800EB850CDCF820507D
:1007F0005607F70E09FA07F6B5430E69BE402E43B9
:10080000CCF82060066855000F790AFA05FC07F05D
:10081000030726EA0C06AF40374307604E68012EF7
:1008200005D0022E03D0112E01D0122E0ED18668D3
:10083000CF6826EA0C06AF40374387604668A64378
:100840000C79C4F30014944034434460C6688C6847
:1008500026EA0C06AC403443C4604C68E40056D52C
:100860002F4C256845F480452560246822F0030557
:1008700004F4804400942B4C2E19D6F808489507B0
:100880002F0F09FA07F5AC43274DA84201D10025E7
:1008900015E0264DA84201D1012510E0244DA842C3
:1008A00001D102250BE0234DA84201D1032506E02A
:1008B000214DA84202D1042501E028E00725BD40D2
:1008C0002543C6F80858DBF800405D464E689C4357
:1008D000F60300D51C432C60DEF8004075464E68D8
:1008E0009C43B60300D51C432C600C4D08352C6886
:1008F0004E689C43F60200D51C432C60074D0C3516
:100900002C684E689C43B60200D51C432C60521CD8
:10091000102AFFF45DAFBDE8F88F0000003C0140F5
:100920004438024000300140000002400004024010
:1009300000080240000C0240001002400AB1816130
:1009400070470904FBE70000014880687047000019
:1009500004000020024881680278114481607047D9
:10096000040000200B4810B5016841F400710160DB
:10097000016841F480610160016841F480710160A7
:10098000032000F06FF8002000F006F800F024F8D3
:10099000002010BD003C024070B50D4D04464FF4E0
:1009A0007A712878B1FBF0F00A490968B1FBF0F0E0
:1009B00000F0E2FA48B9102C07D200222146501E5E
:1009C00000F030F800206C6070BD012070BD0000A8
:1009D00004000020100000200B4882B0016841F4A0
:1009E00080410160006800F4804000900648001FCC
:1009F000016841F080510160006800F08050009073
:100A0000052002B000F02EB84438024000F01F026A
:100A1000012191404009800000F1E020C0F8001160
:100A200070470000F0B40E4B1B680C46C3F3022362
:100A3000C3F10705042D00D90425191D072901D28A
:100A4000002300E0DB1E012606FA05F1491E2140C5
:100A500099409E40761E16403143F0BC00F01ABE0D
:100A60000CED00E0064900F0070208684FF6FF03AE
:100A7000184040EA0220034A104308607047000013
:100A80000CED00E00000FA052DE9F0470E460500E8
:100A900065D0DFF81481D8F80000F7B200F00F003D
:100AA000B04207D288F80070D8F8000000F00F00BC
:100AB000B04254D128683D4C810712D5400703D578
:100AC000206840F4E05020602878000703D52068B3
:100AD00040F4604020602068A96820F0F0000843DE
:100AE00020602878C0072DD030496868083901286F
:100AF00012D0022813D0032811D0096889070029D1
:100B00002DDA216821F0030101432160FFF71CFF6A
:100B1000814641F2883A0EE009688903EFE70968E7
:100B20008901ECE7FFF710FFA0EB0901514502D95D
:100B30000320BDE8F0872068696800F00C00B0EB86
:100B4000810FEFD1D8F80010404601F00F01B142FB
:100B500007D90770006800F00F00B04201D00120F3
:100B6000E7E72878400705D52068E96820F4E050D9
:100B7000084320602878000706D52068296920F4FA
:100B8000604040EAC100206000F036F82168084A61
:100B9000C1F30311515CC840064908600020FFF70B
:100BA000FBFE0020C5E70000003C02400838024080
:100BB0009C1E0008100000200448054900680968D0
:100BC000044AC1F38221515CC840704710000020E4
:100BD00008380240AC1E000804480549006809684E
:100BE000044AC1F34231515CC840704710000020F4
:100BF00008380240AC1E0008154810B5006810F017
:100C00000C02144813D01449042A0FD0082A0ED11C
:100C10000F4C241F2268236802F03F025B0207D5B5
:100C20002068C0F38810A0FB010106E0084610BD53
:100C30002168C1F38811A1FB00010023FFF7C8FA66
:100C40002168C1F30141491C4900B0FBF1F010BD1E
:100C5000083802400024F40040787D012DE9F84F67
:100C6000050076D02878DFF8F8B2BE4CC00749D02E
:100C7000DBF800105846C1F38101012908D0006853
:100C8000C0F3810002280AD1201D0068400206D569
:100C90002068800336D568680028E2D032E06868B2
:100CA000B0F5803F10D0B0F5A02F206810D020F410
:100CB00080302060206820F4802020606868A0B127
:100CC000FFF742FE06460CE0206840F48030F4E76F
:100CD00040F480202060F7E7FFF736FE801B642891
:100CE00073D820688003F7D50CE0FFF72DFE064689
:100CF00005E000BFFFF728FE801B6428F0D82068BD
:100D00008003F7D42878DFF8608280074FF000096D
:100D10003ED5DBF80010584611F00C0F09D00068E2
:100D2000C0F3810002280BD18D48001F00684002EB
:100D300006D42068800715D5E868012809D111E09C
:100D4000E868B8B10120C8F80000FFF7FDFD0646CD
:100D500005E002E1FFF7F8FD801B0228C0D82068FB
:100D60008007F7D52068296920F0F80040EAC10023
:100D700020600DE0C8F80090FFF7E6FD064604E0AD
:100D8000FFF7E2FD801B02281FD820688007F7D4F8
:100D90002878000722D5724E744869696C3671B1A3
:100DA00001210160FFF7D0FD074604E0FFF7CCFD0D
:100DB000C01B022809D830688007F7D50EE0C0F8BC
:100DC0000090FFF7C1FD074605E083E0FFF7BCFD9B
:100DD000C01B02287ED830688007F7D428784007E7
:100DE00068D5DFF87CA100270AF1380ADAF800009C
:100DF000C0000BD4DAF8001041F08051CAF800109E
:100E0000DAF80000012700F080500090584E30685A
:100E1000C00510D4306840F480703060FFF794FD56
:100E2000009005E0FFF790FD0099401A022851D884
:100E30003068C005F6D54A4EA868683601280FD03C
:100E40000528306810D020F001003060306820F0B4
:100E500004003060A868B8B1FFF776FD00900FE09D
:100E6000306840F00100F4E740F004003060F7E73C
:100E7000FFF76AFD0099411A41F28830814264D837
:100E800030688007F4D50EE0FFF75EFD009007E0C4
:100E9000FFF75AFD0099411A41F28830814254D837
:100EA00030688007F4D42FB1DAF8001021F08051B7
:100EB000CAF80010A869C0B3DBF80010C1F38101C3
:100EC00002294AD00228484607D0C8F86000FFF738
:100ED0003BFD00E039E005463AE04746C8F86000CF
:100EE000FFF732FD064604E0FFF72EFD801B0228C7
:100EF0002BD820688001F7D4D5E907010843A96AF7
:100F00001C4A490802EB01416A6A41EA821108431E
:100F100095F82C1040EA01611148001F0160012082
:100F20003866FFF711FD054605E014E0FFF70CFDFC
:100F3000401B022809D820688001F7D50BE000BFCC
:100F4000FFF702FD401B022802D90320BDE8F88FFD
:100F500020688001F4D40020F8E70120F6E70000C3
:100F6000083802400038024000004742800E4742E5
:100F7000007000400000FFFF10B5401EB0F1807F00
:100F800001D3012010BD4FF0E02460610F216017F4
:100F900000F080FB0020A06107202061002010BD30
:100FA0007047704730B590F83820012A20D00122D0
:100FB00080F83820022380F8393003685C6824F018
:100FC00070045C6003685C680D682C435C600368B7
:100FD0009C6824F080049C6003689C6849680C430A
:100FE0009C6080F83920002180F83810084630BD18
:100FF000022030BD10B5040003D094F8390010B1C0
:1010000007E0012010BD002084F83800204600F0E1
:101010000DF8022084F83900211D206800F000FC42
:10102000012084F83900002010BD000008B50068D8
:10103000154988420FD11548016841F0010101604E
:101040000068002200F00100009001211920FFF744
:10105000E9FC192012E0B0F1804F13D10B48001FBA
:10106000016841F0010101600068002200F0010008
:10107000009002211C20FFF7D5FC1C20BDE8084091
:10108000FFF7C4BC08BD0000000001404438024026
:101090000168CA6842F00102CA600068016841F054
:1010A000010101600020704770B5044690F83800D7
:1010B000012817D0012584F83850022084F839001F
:1010C0002068826822F0770222F47F4282600868FA
:1010D000502837D00DDC202859D005DC88B31028E3
:1010E00041D151E0022070BD302853D040283AD180
:1010F0003FE060282ED070280BD0B0F5805F03D081
:10110000B0F5005F2FD110E02068816821F0070161
:1011100015E0CB68D1E90121206800F0C9FB216806
:10112000886840F0770088601DE0CB68D1E9012134
:10113000206800F0BDFB2068816841F48041816037
:1011400011E01EE0CA684968206800F0C3FB502126
:10115000206806E0CA684968206800F0CCFB60217E
:10116000206800F0AFFB84F83950002084F8380084
:1011700070BDCA684968206800F0ACFB4021206857
:10118000EFE700212068ECE710212068E9E7202143
:101190002068E6E730212068E3E7704770B5044631
:1011A000006801694FF00005C943890715D4C1687B
:1011B000C943890711D4E91E016101202076206806
:1011C00080698007204602D0FFF7E7FF04E000F0C7
:1011D00098F8204600F096F8257620680169C94302
:1011E000490717D4C168C943490713D46FF00401F4
:1011F0000161022020762068806910F4407F20463B
:1012000002D0FFF7CAFF04E000F07BF8204600F0B0
:1012100079F8257620680169C943090716D4C168A1
:10122000C943090712D46FF0080101610420207638
:101230002068C0698007204602D0FFF7AEFF04E0B7
:1012400000F05FF8204600F05DF82576206801691F
:10125000C943C90617D4C168C943C90613D46FF07E
:1012600010010161082020762068C06910F4407FD9
:10127000204602D0FFF791FF04E000F042F820463C
:1012800000F040F8257620680169C943C90708D1F4
:10129000C168C943C90704D1891E0161204600F015
:1012A00032F820680169C943090609D4C168C943F5
:1012B000090605D46FF0800101612046FFF770FE3A
:1012C00020680169C943490609D4C168C943490670
:1012D00005D46FF040010161204600F015F8206848
:1012E0000169C94389060BD4C168C943890607D47B
:1012F0006FF0200101612046BDE87040FFF751BE4C
:1013000070BD704770477047704770B5040004D0D7
:1013100094F83900002510B106E0012070BD84F872
:101320003850204600F022F8242084F83900206844
:10133000C16821F40051C160204600F0EFFA206836
:10134000016921F4904101612068416921F02A017D
:1013500041612068C16841F40051C160E56320200B
:1013600084F8390084F83A00002070BD10B586B0CA
:10137000044614216846FEF763FF1349206888423B
:1013800020D11248016841F400310160006800F486
:10139000003005900D481038016841F001010160EE
:1013A0000068694600F0010005900C2000900220C2
:1013B000019001200290032003900720049004482C
:1013C000FFF7F8F906B010BD004400404038024075
:1013D000000002402DE9F843044690F839001F460A
:1013E00016460D46202850D1A5B19EB194F838007C
:1013F00001284AD0012084F838004FF00008C4F8D2
:101400003C80212084F83900FFF79EFAA6848146AB
:10141000E68426E00120BDE8F883E08C401EE084ED
:10142000A0684B46B0F5805F4FF000024FF080019E
:101430002046009703D000F0C7FBE8B90DE000F0AC
:10144000C3FBC8B928882168C0F308004860206938
:1014500008B16D1C05E0AD1C03E0216815F8010B17
:101460004860E08C0028D8D14B460022402120461D
:10147000009700F0A9FB08B10320CCE7202084F8F6
:10148000390084F838800020C5E70220C3E7FEE772
:1014900070B50A4C0546042020602846FFF778F90D
:1014A000022020602846FFF773F9012020602846BB
:1014B000FFF76EF90020206070BD000014080240A4
:1014C0007FB50024144800940194029411490394B8
:1014D00001604FF48031C0E9011401250461856188
:1014E0000E490462C0E90A14C4600463C561446122
:1014F000FFF743F808B1FEF791FF0820CDE900059A
:10150000694602940448FEF78BFF002801D0FEF7DD
:1015100085FF7FBD00200140140000200100000F66
:1015200030B587B014216846FEF78AFE15480024BE
:10153000016841F004010160016801F004010591B6
:10154000016841F001010160016801F001010591AC
:10155000016841F00201016000680B4D00F00200DB
:101560000590002207212846FFF7E8F907200090A0
:101570000120CDE90104694628460394FFF71AF9D2
:1015800007B030BD303802400008024010B586B0C8
:10159000002417480094019402940394049413497E
:1015A000059401606321C0E9011440F2E731C0E90C
:1015B00003144461FFF71EFD08B1FEF72FFF4FF43F
:1015C0008050009069460A48FFF76EFD08B1FEF7AB
:1015D00025FF049404A906480594FFF7E3FC0028BE
:1015E00001D0FEF71BFF06B010BD00000000014057
:1015F0005C00002010B586B00024154800940194CA
:101600000294039404944FF0804105940160632197
:10161000C0E901140F49C0E90314FFF7EBFC08B15E
:10162000FEF7FCFE4FF48050009069460848FFF733
:101630003BFD08B1FEF7F2FE049404A904480594AA
:10164000FFF7B0FC002801D0FEF7E8FE06B010BDA1
:10165000980000205FAE0A000C4810B50A490160EE
:101660004FF4E1314160002181600C22C160C0E98A
:1016700004128161C161FFF748FE002803D0BDE874
:101680001040FEF7CBBE10BD00440040D400002047
:10169000FEE770470907090E002806DA00F00F0080
:1016A00000F1E02080F8141D704700F1E02080F880
:1016B0000014704770477047FFF74CB930B593B0CE
:1016C00030216846FEF7BCFD14210CA8FEF7B8FDDA
:1016D00018480025016841F080510160006800F061
:1016E000805011901448016841F440410160006845
:1016F000022400F440401190012003901020049037
:10170000009406940820CDE907506420CDE909042F
:1017100004200B906846FFF7A1FA0CA90F2081E87E
:101720003100E002CDE90F0503210CA8FFF7ACF969
:1017300013B030BD403802400070004010480168CE
:1017400041F4700101600F48016841F0010101603E
:101750000C4A00210832116002680B4B1A400260EB
:10176000031D0A4A1A60026822F4802202600548BA
:101770000C3001600249580680390860704700004B
:1017800088ED00E000380240FFFFF6FE1030002434
:101790000148FFF703BD00005C00002010B51D48A4
:1017A000FEF798FF002464211A48FEF741FF002845
:1017B000F9D11848FEF7DEFE0146174801600268BD
:1017C00040F6B9334FF47A719A4200D90C46026858
:1017D00040F6B8339A4206D2026840F2D1739A4278
:1017E00001D94FF448740268B2F5FA6F06D2026864
:1017F00040F2E9339A4201D94FF4167400688842E6
:1018000000D2C824204600F0E7FABDE810400348A3
:10181000FFF7C4BC14000020000000209800002046
:10182000F0B502681B4B1C4C9F031C4D1C4E98428C
:1018300007D0B84205D0A04203D0A84201D0B042A0
:1018400004D122F0700C4A6842EA0C02984210D08F
:10185000B8420ED0A0420CD0A8420AD0B04208D064
:10186000104CA04205D0104CA04202D00F4CA04218
:1018700003D122F44074CA68224302608A68C262BB
:101880000A688262984201D10969016301214161BC
:10189000F0BD0000000001400004004000080040CE
:1018A000000C00400040014000440140004801405D
:1018B00010B5846842EA032224F47F440A43224399
:1018C000826010BD826822F070020A4342F0070174
:1018D0008160704710B5036A046A24F00104046251
:1018E000846924F0F00444EA021423F00A020A4353
:1018F0008461026210BD10B5036A23F01003036215
:101900008369046A23F4704343EA023224F0A0039B
:1019100043EA01118261016210BD00002DE9F0412E
:1019200004460068016921F44052E16811430161F5
:101930002168C86849F20C6290432369A268E5698E
:101940001A4363692B431A430243CA6021684869FA
:1019500020F44072A06910434861E1696425B1F543
:10196000004F9748974A21684FF032083FD0914284
:1019700001D081427CD1FFF72FF900EBC00101EBD0
:10198000001061688900B0FBF1F6FFF725F900EB64
:10199000C00101EB001061688900B0FBF1F0B0FB01
:1019A000F5F06FF01801484306EB800108EB0110D9
:1019B000B0FBF5F000F0F006FFF70EF900EBC00108
:1019C00001EB001061688900B0FBF1F0B0FBF5F0AD
:1019D00006EB0016FFF700F900EBC00101EB001069
:1019E00061688900B0FBF1F7FFF7F6F8D2E09142A9
:1019F00001D081423DD1FFF7EFF800EBC00101EBD0
:101A0000001061684900B0FBF1F0B0FBF5F0060191
:101A1000FFF7E2F800EBC00101EB0010616849003C
:101A2000B0FBF1F7FFF7D8F800EBC00101EB0010B5
:101A300061684900B0FBF1F0B0FBF5F06FF0180100
:101A4000484307EB800108EBC100B0FBF5F000F064
:101A5000F80006EB4006FFF7BFF800EBC00101EB12
:101A6000001061684900B0FBF1F7FFF7B5F83CE002
:101A700055E0FFF7A1F800EBC00101EB0010616831
:101A80004900B0FBF1F0B0FBF5F00601FFF794F868
:101A900000EBC00101EB001061684900B0FBF1F7F9
:101AA000FFF78AF800EBC00101EB00106168490004
:101AB000B0FBF1F0B0FBF5F06FF01801484307EB15
:101AC000800108EBC100B0FBF5F000F0F80006EB78
:101AD0004006FFF771F800EBC00101EB00106168F0
:101AE0004900B0FBF1F7FFF767F800EBC00101EB2D
:101AF000001061684900B0FBF1F0B0FBF5F06FF049
:101B00001801484307EB800108EBC100B0FBF5F07A
:101B100000F00700216830448860BDE8F081FFF7DD
:101B20004BF800EBC00101EB001061688900B0FBCD
:101B3000F1F6FFF741F800EBC00101EB001061681E
:101B40008900B0FBF1F0B0FBF5F06FF018014843ED
:101B500006EB800108EB0110B0FBF5F000F0F00699
:101B6000FFF72AF800EBC00101EB00106168890063
:101B7000B0FBF1F0B0FBF5F006EB0016FFF71CF838
:101B800000EBC00101EB001061688900B0FBF1F7C8
:101B9000FFF712F800EBC00101EB0010616889004B
:101BA000B0FBF1F0B0FBF5F06FF01801484307EB24
:101BB000800108EB0110B0FBF5F000F00F00A9E781
:101BC00000140140001001402DE9F04198461746ED
:101BD0000E460446069D1DE0681C1BD02DB1FEF785
:101BE000B3FEA0EB0800A84214D92068C16821F414
:101BF000D071C1602068416921F00101416120205C
:101C000084F8390084F83A00002084F83800032072
:101C1000BDE8F0812068006836EA000004D00020AA
:101C2000B842D9D00020F3E70120F9E7FEE7000031
:101C30000FB4084B10B504A902AA039800F01CF8D1
:101C4000044602A9002000F0C1F8204610BC5DF84F
:101C500014FB0000CD1D000802E008C8121F08C1D7
:101C6000002AFAD170477047002001E001C1121F1D
:101C7000002AFBD1704700002DE9FF4F89B09B4639
:101C80000446002506E025280BD05A460B999047BC
:101C9000641C6D1C20780028F5D10DB02846BDE8E5
:101CA000F08F0027B8460122474900E0074314F8A7
:101CB000013F203B02FA03F00842F7D120782E289A
:101CC00019D114F8010F47F004072A280ED06FF03D
:101CD0002F022078A0F1300109290CD808EB8801E7
:101CE00002EB410100EB0108641CF2E70A98641C56
:101CF00050F8048B0A9020780028CED0642808D0B1
:101D0000692806D075281ED05A460B9990476D1C3D
:101D100058E00A994FF00A0901C90A91002802DA2D
:101D200040422D2102E0390504D52B218DF82010E9
:101D3000012103E0F90704D02021F7E78A4608AE25
:101D40000DE00021FAE70A994FF00A0901C90A914A
:101D5000F7E74946FEF786FA303106F8011D0028FC
:101D6000F7D1ADEB060000F12009780701D44FF060
:101D70000108C84502DDA8EB090000E0002080460C
:101D8000002706E008A85A46C05D0B9990476D1CD5
:101D90007F1C5745F6DB04E030205A460B999047EC
:101DA0006D1CB8F10001A8F10108F5DC05E016F89A
:101DB000010B5A460B9990476D1CB9F10001A9F12E
:101DC0000109F4DC641C65E7092801000A68531C5A
:101DD0000B601070704700001FB5024607A16846EF
:101DE000FFF726FF6846FEF736FA82B24FF47A73A1
:101DF00069460448FFF7EEFA1FBD000025750D0A7D
:101E000000000000D400002008B5FEF7ABFDFFF78E
:101E100055FCFFF785FBFFF753FBFFF71DFCFFF7B2
:101E2000E9FBFFF7B3FB1A48FFF732F90024194822
:101E30000094FEF74FFCDFF8608040F6B93540F2C1
:101E4000D1764FF4487A40F2E9374FF4167B4FF4DD
:101E50007A7964210F48FEF7EBFB0028F9D10D4891
:101E6000FEF788FB0090A84201D948460AE0B0423C
:101E700001D9504606E0B84201D9584602E048452B
:101E800003D2C820FFF704FBE3E7C8F80040E0E70F
:101E900098000020140000201408024000000000F8
:101EA000000000000102030406070809000000000A
:101EB00001020304D41E00080000002014000000EA
:101EC000581C0008E81E000814000020040500004B
:101ED000681C000800000000010000001000000065
:081EE000000000000024F400E2
:040000050800019955
:00000001FF
