:020000040800F2
:1000000098040020AD010008E7110008DF10000887
:10001000E5110008ED030008F515000800000000D8
:100020000000000000000000000000000B120008AB
:10003000EF03000800000000091200080D1200087C
:10004000C7010008C7010008C7010008C701000870
:10005000C7010008C7010008C7010008C701000860
:10006000C7010008C7010008C7010008C701000850
:10007000C7010008C7010008C7010008C701000840
:10008000C7010008C7010008C70100080000000000
:10009000000000000000000000000000C701000890
:1000A000C7010008C7010008C7010008C701000810
:1000B000C7010008C7010008C7010008C701000800
:1000C000C7010008C7010008C7010008C7010008F0
:1000D000C7010008C7010008C701000800000000B0
:1000E000C7010008C7010008C701000800000000A0
:1000F000000000000000000000000000C701000830
:1001000000000000C7010008C7010008C70100087F
:1001100000000000000000000000000000000000DF
:10012000C7010008C7010008C7010008C70100088F
:10013000C7010008000000000000000000000000EF
:10014000000000000000000000000000C7010008DF
:10015000C7010008C7010008C7010008C70100085F
:10016000C7010008C70100080000000000000000EF
:10017000000000000000000000000000000000007F
:1001800000000000C701000800000000000000009F
:10019000C7010008C7010008DFF80CD000F082F8A2
:1001A00000480047E11A00089804002006488047EC
:1001B00006480047FEE7FEE7FEE7FEE7FEE7FEE74C
:1001C000FEE7FEE7FEE7FEE791120008990100084E
:1001D0002DE9F05F0546002092469B46884606467C
:1001E000814640241BE0284641464746224600F00F
:1001F00048F853465A46C01A914110D31146184642
:10020000224600F02FF82D1A67EB01084F462246D0
:100210000120002100F026F817EB00094E41201EB6
:10022000A4F10104DFDC484631462A464346BDE8D6
:10023000F09FD2B201E000F8012B491EFBD27047BB
:100240000022F6E710B513460A4604461946FFF7A2
:10025000F0FF204610BD421C10F8011B0029FBD105
:10026000801A7047202A04DB203A00FA02F10020AD
:1002700070479140C2F1200320FA03F319439040E4
:100280007047202A04DB203A21FA02F0002170474F
:1002900021FA02F3D040C2F12002914008431946EE
:1002A00070470000064C074D06E0E06840F001038F
:1002B00094E8070098471034AC42F6D3FFF770FF7C
:1002C000841B0008A41B0008454910B54A6822F4A5
:1002D00040324A604A6843681A434A6001684A6883
:1002E00022F480724A6001684A68036942EA032284
:1002F0004A6001684A6822F040724A6001684A68B0
:1003000083681A434A6001688A6822F400628A603E
:1003100001688A68C3681A438A60816A6FF07062F4
:10032000D14201688A6822F070628A6001688A6836
:100330000CD0836A1A438A6001688A6822F04052AE
:100340008A6001688A68C36A1A4301E022F0405259
:100350008A6001688A6822F002028A6001688A68FD
:10036000836942EA43028A60016A002901684A6897
:100370000FD042F400624A6001684A6822F4604289
:100380004A6001684A68174C436A04EB43331A43D6
:1003900001E022F400624A600168CA6A22F4700235
:1003A000CA620168CA6A838B0F4C04EB03531A4379
:1003B000CA6201688A6822F400728A6001688A68E9
:1003C000036B42EA43228A6001688A6822F48062F1
:1003D0008A6001688A68406942EA8020886010BDAE
:1003E0000023014000E0FFFF0000F0FFFEE7704740
:1003F0007047000078B50024009490F83C20012A52
:1004000019D0012280F83C200A6807230568092AD0
:1004100013D9EE680A3A02EB420293409E43EE6023
:100420000A788B680A3A02EB420293400268D56868
:100430002B43D36010E0022078BD2E6902EB42020C
:1004400093409E432E610A788B6802EB42029340F0
:10045000026815692B4313614A681F23072A13D2C8
:1004600005686E6B521E02EB820293409E436E63E0
:100470000B790A885B1E92B203EB83039A400368F0
:100480005D6B2A435A6327E005680D2A12D22E6B52
:10049000D21F02EB820293409E432E630B790A889F
:1004A000DB1F92B203EB83039A4003681D6B2A4360
:1004B0001A6311E0EE6A0D3A02EB820293409E430A
:1004C000EE620B790A880D3B92B203EB83039A40EC
:1004D0000368DD6A2A43DA62174B0568154A9D42B4
:1004E00006D10D68122D03D1556845F4800555607D
:1004F00005689D4219D1114D0B68AB4201D0112BFB
:1005000013D1536843F4000353600968A9420CD126
:100510000B490C4A0968B1FBF2F101EB810149007A
:1005200000E0491E00910029FBD180F83C400020EA
:1005300078BD00000023014000200140120000109F
:100540000C00002040420F000068C06C704770B57E
:1005500004004FF0000503D0206C002610B107E026
:10056000012070BD666484F83C60204600F01AF8F3
:10057000206CC00610D4206C20F4885040F002009B
:1005800020642046FFF7A0FE6664206C20F0020085
:1005900040F00100206400E0012584F83C6028461A
:1005A00070BD000010B586B0044614216846FFF700
:1005B00047FE1149206888421CD11048002102687A
:1005C00042F480720260006800F4807005900B486D
:1005D0001438026842F002020260006800F0020073
:1005E0000590012000900320CDE9010169460448EF
:1005F00000F0CAF806B010BD0020014044380240A7
:10060000000402402DE9F041044600680D4681686F
:100610004FF0000749050BD58068C00508D5206C50
:1006200040F02000206484F83C700120BDE8F08197
:1006300000F074F906460FE0681C0DD025B100F0FB
:100640006DF9801BA84207D9206C40F0040020649B
:1006500084F83C700320E9E7206800688007EBD548
:1006600021686FF012000860206C40F40070206474
:100670002068816811F0405F13D1A16989B9C16A0E
:1006800011F4700F02D0806840050AD4206C20F469
:1006900080702064206CC00403D4206C40F0010002
:1006A00020640020C2E7000018B50021009190F8F6
:1006B0003C20012A07D0012280F83C200268936880
:1006C000DB0702D011E0022018BD936843F001035C
:1006D0009360204A204B1268B2FBF3F202EB420215
:1006E00000E0521E0092002AFBD102689368DB07EB
:1006F0002DD0036C40F20164A34343F48073036480
:1007000053685B0505D5036C23F4005343F4805311
:100710000364036CDB0404D5436C23F006034364D9
:1007200000E0416480F83C100C496FF02203136034
:1007300049680068C90602D00949884207D1816822
:1007400011F0405F03D1816841F080418160002059
:1007500018BD00000C00002040420F0000230140A3
:100760000020014070B5044600F0D8F80546601C32
:1007700002D004480078044400F0D0F8401BA042A6
:10078000FAD370BD000000202DE9F84FDFF860B10A
:1007900000224FF001084FF0030A4FF00F090BF150
:1007A000040E00BF0B6808FA02F42340A3426ED186
:1007B0004D68022D01D0122D0ED1D50800EB850C0D
:1007C000DCF820505607F70E09FA07F6B5430E6914
:1007D000BE402E43CCF82060066855000F790AFA17
:1007E00005FC07F0030726EA0C06AF403743076015
:1007F0004E68012E05D0022E03D0112E01D0122EEC
:100800000ED18668CF6826EA0C06AF403743876072
:100810004668A6430C79C4F3001494403443446002
:10082000C6688C6826EA0C06AC403443C4604C6849
:10083000E40056D52F4C256845F480452560246892
:1008400022F0030504F4804400942B4C2E19D6F8B2
:10085000084895072F0F09FA07F5AC43274DA84222
:1008600001D1002515E0264DA84201D1012510E057
:10087000244DA84201D102250BE0234DA84201D10D
:10088000032506E0214DA84202D1042501E028E01D
:100890000725BD402543C6F80858DBF800405D46F3
:1008A0004E689C43F60300D51C432C60DEF80040E4
:1008B00075464E689C43B60300D51C432C600C4D16
:1008C00008352C684E689C43F60200D51C432C600A
:1008D000074D0C352C684E689C43B60200D51C436E
:1008E0002C60521C102AFFF45DAFBDE8F88F0000A9
:1008F000003C01404438024000300140000002400A
:100900000004024000080240000C024000100240B7
:100910000AB1816170470904FBE700000148806863
:1009200070470000000000200248816802781144EE
:1009300081607047000000200B4810B5016841F449
:1009400000710160016841F480610160016841F457
:1009500080710160032000F061F8002000F006F8CB
:1009600000F024F8002010BD003C024070B50D4D91
:1009700004464FF47A712878B1FBF0F00A4909680F
:10098000B1FBF0F000F0D4FA48B9102C07D20022E5
:100990002146501E00F022F800206C6070BD01203E
:1009A00070BD0000000000200C0000200A4808B5BF
:1009B000016841F480410160006800F480400090CB
:1009C0000548001F016841F080510160006800F097
:1009D0008050009008BD000044380240F0B40E4B37
:1009E0001B680C46C3F30223C3F10705042D00D98D
:1009F0000425191D072901D2002300E0DB1E012672
:100A000006FA05F1491E214099409E40761E164087
:100A10003143F0BC00F0E8BB0CED00E0064900F00B
:100A2000070208684FF6FF03184040EA0220034A15
:100A300010430860704700000CED00E00000FA056C
:100A40002DE9F0470E46050065D0DFF81481D8F88F
:100A50000000F7B200F00F00B04207D288F8007033
:100A6000D8F8000000F00F00B04254D128683D4C87
:100A7000810712D5400703D5206840F4E05020607C
:100A80002878000703D5206840F460402060206883
:100A9000A96820F0F000084320602878C0072DD016
:100AA000304968680839012812D0022813D0032879
:100AB00011D00968890700292DDA216821F0030186
:100AC00001432160FFF72AFF814641F2883A0EE098
:100AD00009688903EFE709688901ECE7FFF71EFF62
:100AE000A0EB0901514502D90320BDE8F087206839
:100AF000696800F00C00B0EB810FEFD1D8F800105E
:100B0000404601F00F01B14207D90770006800F0BC
:100B10000F00B04201D00120E7E72878400705D553
:100B20002068E96820F4E050084320602878000736
:100B300006D52068296920F4604040EAC1002060A1
:100B400000F036F82168084AC1F30311515CC8402F
:100B5000064908600020FFF709FF0020C5E70000F4
:100B6000003C0240083802406C1B00080C000020CA
:100B70000448054900680968044AC1F38221515CB0
:100B8000C84070470C000020083802407C1B000859
:100B90000448054900680968044AC1F34231515CC0
:100BA000C84070470C000020083802407C1B000839
:100BB000154810B5006810F00C02144813D0144901
:100BC000042A0FD0082A0ED10F4C241F2268236854
:100BD00002F03F025B0207D52068C0F38810A0FB3B
:100BE000010106E0084610BD2168C1F38811A1FB90
:100BF00000010023FFF7ECFA2168C1F30141491C11
:100C00004900B0FBF1F010BD083802400024F400A8
:100C100040787D012DE9F84F050076D02878DFF87F
:100C2000F8B2BE4CC00749D0DBF800105846C1F3FB
:100C30008101012908D00068C0F3810002280AD18F
:100C4000201D0068400206D52068800336D56868FC
:100C50000028E2D032E06868B0F5803F10D0B0F5EF
:100C6000A02F206810D020F480302060206820F46D
:100C7000802020606868A0B1FFF750FE06460CE0B7
:100C8000206840F48030F4E740F480202060F7E7EB
:100C9000FFF744FE801B642873D820688003F7D5D3
:100CA0000CE0FFF73BFE064605E000BFFFF736FE0F
:100CB000801B6428F0D820688003F7D42878DFF8F8
:100CC000608280074FF000093ED5DBF800105846DF
:100CD00011F00C0F09D00068C0F3810002280BD17D
:100CE0008D48001F0068400206D42068800715D593
:100CF000E868012809D111E0E868B8B10120C8F816
:100D00000000FFF70BFE064605E002E1FFF706FED6
:100D1000801B0228C0D820688007F7D52068296981
:100D200020F0F80040EAC10020600DE0C8F8009013
:100D3000FFF7F4FD064604E0FFF7F0FD801B0228F4
:100D40001FD820688007F7D42878000722D5724E74
:100D5000744869696C3671B101210160FFF7DEFDED
:100D6000074604E0FFF7DAFDC01B022809D8306807
:100D70008007F7D50EE0C0F80090FFF7CFFD0746DB
:100D800005E083E0FFF7CAFDC01B02287ED830686B
:100D90008007F7D42878400768D5DFF87CA10027C2
:100DA0000AF1380ADAF80000C0000BD4DAF80010B3
:100DB00041F08051CAF80010DAF80000012700F075
:100DC00080500090584E3068C00510D4306840F410
:100DD00080703060FFF7A2FD009005E0FFF79EFDF8
:100DE0000099401A022851D83068C005F6D54A4EFD
:100DF000A868683601280FD00528306810D020F088
:100E000001003060306820F004003060A868B8B19C
:100E1000FFF784FD00900FE0306840F00100F4E738
:100E200040F004003060F7E7FFF778FD0099411AC1
:100E300041F28830814264D830688007F4D50EE0F2
:100E4000FFF76CFD009007E0FFF768FD0099411A7D
:100E500041F28830814254D830688007F4D42FB1F1
:100E6000DAF8001021F08051CAF80010A869C0B368
:100E7000DBF80010C1F3810102294AD0022848465C
:100E800007D0C8F86000FFF749FD00E039E00546EB
:100E90003AE04746C8F86000FFF740FD064604E028
:100EA000FFF73CFD801B02282BD820688001F7D477
:100EB000D5E907010843A96A1C4A490802EB014128
:100EC0006A6A41EA8211084395F82C1040EA0161F0
:100ED0001148001F016001203866FFF71FFD05461D
:100EE00005E014E0FFF71AFD401B022809D820682E
:100EF0008001F7D50BE000BFFFF710FD401B022873
:100F000002D90320BDE8F88F20688001F4D40020C6
:100F1000F8E70120F6E700000838024000380240F8
:100F200000004742800E4742007000400000FFFF73
:100F300010B5401EB0F1807F01D3012010BD4FF0ED
:100F4000E02460610F21601700F04EF90020A061DD
:100F500007202061002010BD70B5040004D094F873
:100F60003900002510B106E0012070BD84F838502A
:100F7000204600F023F8242084F839002068C16856
:100F800021F40051C160204600F0ACF920680169ED
:100F900021F4904101612068416921F02A014161F9
:100FA0002068C16841F40051C160E563202084F8E5
:100FB000390084F83A00002070BD000010B586B0FA
:100FC000044614216846FFF73BF91349206888421C
:100FD00020D11248016841F400310160006800F43A
:100FE000003005900D481038016841F001010160A2
:100FF0000068694600F0010005900C200090022076
:1010000001900120029003200390072004900448DF
:10101000FFF7BAFB06B010BD004400404038024064
:10102000000002402DE9F843044690F839001F46BD
:1010300016460D46202850D1A5B19EB194F838002F
:1010400001284AD0012084F838004FF00008C4F885
:101050003C80212084F83900FFF760FCA68481469B
:10106000E68426E00120BDE8F883E08C401EE084A1
:10107000A0684B46B0F5805F4FF000024FF0800152
:101080002046009703D000F083FAE8B90DE000F0A5
:101090007FFAC8B928882168C0F308004860206931
:1010A00008B16D1C05E0AD1C03E0216815F8010BCB
:1010B0004860E08C0028D8D14B46002240212046D1
:1010C000009700F065FA08B10320CCE7202084F8EF
:1010D000390084F838800020C5E70220C3E7FEE726
:1010E0007FB500241448009401940294114903949C
:1010F00001604FF48031C0E901140125046185616C
:101100000E490462C0E90A14C4600463C561446105
:10111000FFF71DFA08B1FFF76BF90820CDE90005CC
:10112000694602940448FFF765F9002801D0FFF7EB
:101130005FF97FBD00200140100000200100000F7A
:1011400030B587B014216846FFF77AF815480024B7
:10115000016841F004010160016801F0040105919A
:10116000016841F001010160016801F00101059190
:10117000016841F00201016000680B4D00F00200BF
:10118000059000220F212846FFF7C2FB0F20009098
:101190000120CDE90104694628460394FFF7F4FADB
:1011A00007B030BD30380240000802400C4810B58E
:1011B0000A4901604FF4E1314160002181600C2255
:1011C000C160C0E904128161C161FFF7C5FE00285A
:1011D00003D0BDE81040FFF70BB910BD004400403C
:1011E00058000020FEE770470907090E002806DABC
:1011F00000F00F0000F1E02080F8141D704700F1AE
:10120000E02080F80014704770477047FFF78CBBF0
:1012100030B593B030216846FFF712F814210CA8BE
:10122000FFF70EF818480025016841F08051016071
:10123000006800F0805011901448016841F440416A
:1012400001600068022400F44040119001200390E6
:1012500010200490009406940820CDE907506420E3
:10126000CDE9090404200B906846FFF7D3FC0CA9D4
:101270000F2081E83100E002CDE90F0503210CA821
:10128000FFF7DEFB13B030BD403802400070004075
:101290001048016841F4700101600F48016841F095
:1012A000010101600C4A00210832116002680B4BF9
:1012B0001A400260031D0A4A1A60026822F4802262
:1012C000026005480C300160024958068039086008
:1012D0007047000088ED00E000380240FFFFF6FE96
:1012E000103000242DE9F04104460068016921F422
:1012F0004052E168114301612168C86849F20C62FB
:1013000090432369A268E5691A4363692B431A4332
:101310000243CA602168486920F44072A069104302
:101320004861E1696425B1F5004F9748974A216803
:101330004FF032083FD0914201D081427CD1FFF77B
:1013400027FC00EBC00101EB001061688900B0FBD5
:10135000F1F6FFF71DFC00EBC00101EB0010616826
:101360008900B0FBF1F0B0FBF5F06FF018014843D5
:1013700006EB800108EB0110B0FBF5F000F0F00681
:10138000FFF706FC00EBC00101EB0010616889006B
:10139000B0FBF1F0B0FBF5F006EB0016FFF7F8FB41
:1013A00000EBC00101EB001061688900B0FBF1F7B0
:1013B000FFF7EEFBD2E0914201D081423DD1FFF731
:1013C000E7FB00EBC00101EB001061684900B0FBD6
:1013D000F1F0B0FBF5F00601FFF7DAFB00EBC0011E
:1013E00001EB001061684900B0FBF1F7FFF7D0FB9B
:1013F00000EBC00101EB001061684900B0FBF1F0A7
:10140000B0FBF5F06FF01801484307EB800108EBE3
:10141000C100B0FBF5F000F0F80006EB4006FFF766
:10142000B7FB00EBC00101EB001061684900B0FBA5
:10143000F1F7FFF7ADFB3CE055E0FFF799FB00EB60
:10144000C00101EB001061684900B0FBF1F0B0FB96
:10145000F5F00601FFF78CFB00EBC00101EB00107B
:1014600061684900B0FBF1F7FFF782FB00EBC001B8
:1014700001EB001061684900B0FBF1F0B0FBF5F042
:101480006FF01801484307EB800108EBC100B0FB87
:10149000F5F000F0F80006EB4006FFF769FB00EB03
:1014A000C00101EB001061684900B0FBF1F7FFF7E4
:1014B0005FFB00EBC00101EB001061684900B0FB6D
:1014C000F1F0B0FBF5F06FF01801484307EB800135
:1014D00008EBC100B0FBF5F000F0070021683044D4
:1014E0008860BDE8F081FFF743FB00EBC00101EB32
:1014F000001061688900B0FBF1F6FFF739FB00EBE3
:10150000C00101EB001061688900B0FBF1F0B0FB95
:10151000F5F06FF01801484306EB800108EB01106D
:10152000B0FBF5F000F0F006FFF722FB00EBC00186
:1015300001EB001061688900B0FBF1F0B0FBF5F041
:1015400006EB0016FFF714FB00EBC00101EB0010E7
:1015500061688900B0FBF1F7FFF70AFB00EBC001FF
:1015600001EB001061688900B0FBF1F0B0FBF5F011
:101570006FF01801484307EB800108EB0110B0FB46
:10158000F5F000F00F00A9E7001401400010014041
:101590002DE9F041984617460E460446069D1DE08B
:1015A000681C1BD02DB1FFF7B9F9A0EB0800A842C9
:1015B00014D92068C16821F4D071C16020684169E4
:1015C00021F001014161202084F8390084F83A00BB
:1015D000002084F838000320BDE8F081206800680E
:1015E00036EA000004D00020B842D9D00020F3E74A
:1015F0000120F9E7FEE700000FB4084B10B504A97D
:1016000002AA039800F01CF8044602A9002000F08A
:1016100048FA204610BC5DF814FB0000A31A00082D
:1016200002E008C8121F08C1002AFAD170477047AB
:10163000002001E001C1121F002AFBD17047000009
:101640002DE9FF4F8DB00F460546002606E0252800
:101650000BD0DDE90F1290476D1C761C287800280E
:10166000F5D111B03046BDE8F08F0024A246A14666
:101670000122EC4900E0044315F8013F203B02FA47
:1016800003F00842F7D128782A2810D06FF02F02F3
:101690002878A0F13001092914D80AEB8A0102EB5D
:1016A000410144F0020400EB010A6D1CF0E701CF98
:1016B0005FEA000A03D544F40054CAF1000A44F07A
:1016C00002046D1C28782E2817D115F8010F44F05C
:1016D00004042A280ED06FF02F022878A0F13001E0
:1016E00009290AD809EB890102EB410100EB010944
:1016F0006D1CF2E757F8049B6D1C28786C280FD0FE
:1017000006DC4C2817D068280DD06A2814D104E0D4
:10171000742810D07A280FD10DE044F400140AE0A8
:1017200044F4801401E044F440146978814202D109
:1017300004F580146D1C6D1C2A786E2A1FD00CDCF9
:10174000632A31D004DC002A8BD0582A11D1A3E0BF
:10175000642A68D0692A0CD165E0732A2ED004DC93
:101760006F2A73D0702A04D19BE0752A6FD0782A33
:101770006ED01046DDE90F129047761C50E1C4F39D
:101780000250022806D0032809D0042801CF09D02E
:10179000066045E101CFF117C0E9006140E101CFEA
:1017A00006803DE106703BE117F8040B8DF8000060
:1017B00000208DF80100EB46012003E057F804BB40
:1017C0004FF0FF3061074FF0000102D40DE008F147
:1017D0000101884649450FDA8045F8DB1BF80810FF
:1017E0000029F4D108E008F1010188468142FADBC2
:1017F0001BF808100029F6D1DDE90F23AAEB080039
:101800008146214600F036F9304400EB080604E03A
:10181000DDE90F121BF8010B9047B8F10108F7D270
:1018200021464846F7E00A21C4F302534FF0000B6B
:101830000891022B04D001CFC117032B09D00AE075
:10184000FF1D27F00707F7E8020108E032E01FE07C
:1018500020E000B2C117042B01D140B2C117031E12
:1018600071F1000307DA4FF0000CD0EB0C006CEBC9
:1018700001012D2302E0230504D52B238DF824300C
:10188000012303E0E30701D02023F7E7984658E05F
:101890000A2110E010210EE010204FF0000B0890FC
:1018A0000CE010214FF0000B44F004044FF0080945
:1018B000089103E008214FF0000B0891C4F3025394
:1018C000022B04D001CF0021032B06D006E0FF1D20
:1018D00027F00707F7E8020103E080B2042B00D1EC
:1018E000C0B24FF0000823072BD5702A07D0DDF8CF
:1018F00020C08CF0100C5CEA0B0C05D00EE04023ED
:101900008DF82430012308E050EA010306D030238B
:101910008DF824308DF8252002239846DDF820C06C
:101920008CF0080C5CEA0B0C0BD150EA010301D1DE
:10193000630706D530238DF824304FF00108A9F154
:101940000109582A04D038A20B9208AA0A920BE087
:101950003AA2F9E75B46089AFEF73AFC0B9B9B5CC0
:101960000A9A521E0A92137050EA0102F2D10A98A2
:10197000ADEB000000F1200B600702D524F48034A9
:1019800001E04FF00109D94502DDA9EB0B0000E0B1
:10199000002000EB0B0141440890AAEB010AE00390
:1019A00006D4DDE90F232146504600F063F80644D3
:1019B0004FF0000908E009A911F80900DDE90F124C
:1019C000904709F10109761CC145F4DBE0030CD511
:1019D000DDE90F232146504600F04CF8064404E0B0
:1019E000DDE90F1230209047761C0899481E0890B8
:1019F0000029F5DC08E00A980A990078491C0A9148
:101A0000DDE90F129047761CBBF10001ABF1010B31
:101A1000F1DC21465046DDE90F2300F019F80644B9
:101A20006D1C1BE60928010030313233343536375E
:101A3000383961626364656600000000303132331A
:101A400034353637383941424344454600000000BA
:101A50002DE9F041044600251E461746880404D4AB
:101A600005E039462020B0476D1C641EF9D5284694
:101A7000BDE8F0812DE9F041044600251E46904660
:101A8000C80301D5302700E02027880404D505E0ED
:101A900041463846B0476D1C641EF9D52846BDE85E
:101AA000F0810A68531C0B60107070471FB5024626
:101AB00007A16846FFF7A0FD6846FEF7CCFB82B29F
:101AC0004FF47A7369460548FFF7ACFA1FBD000072
:101AD0003078253038780D0A0000000058000020CA
:101AE00008B5FEF729FFFFF793FBFFF729FBFFF788
:101AF000F7FAFFF75BFB00241A480094FEF7D4FDC9
:101B0000A346194C40F6D8650F264FF42F674FF0C7
:101B100007084FF4B4694FF0030A64211148FEF737
:101B200071FD0028F9D10F48FEF70EFD0090A84284
:101B300001D926600EE0B84201D9404609E0484587
:101B400001D9504605E0B0F5E17F01D9012000E060
:101B5000584620600098FFF7A9FF6420FEF702FEB8
:101B6000DBE7000010000020140802400000000025
:101B7000000000000102030406070809000000003D
:101B800001020304A41B0008000000201000000054
:101B900020160008B41B0008100000208804000074
:101BA00030160008010000001000000000000000D6
:041BB0000024F40019
:040000050800019955
:00000001FF
