:020000040800F2
:1000000090040020AD0100088D170008411600087B
:100010008917000801050008A91F0008000000005A
:10002000000000000000000000000000CB170008E6
:100030000505000800000000C9170008CD170008DA
:10004000C7010008C7010008C7010008C701000870
:10005000C7010008C7010008C7010008C701000860
:10006000C7010008C7010008C7010008C701000850
:10007000C7010008C7010008C7010008C701000840
:10008000C7010008C7010008C70100080000000000
:10009000000000000000000000000000C701000890
:1000A000C7010008C7010008C7010008C701000810
:1000B000C7010008C7010008C7010008C701000800
:1000C000C7010008C7010008C7010008C7010008F0
:1000D000C7010008C7010008C701000800000000B0
:1000E000C7010008C7010008C701000800000000A0
:1000F000000000000000000000000000C701000830
:1001000000000000C7010008C7010008C70100087F
:1001100000000000000000000000000000000000DF
:10012000C7010008C7010008C7010008C70100088F
:10013000C7010008000000000000000000000000EF
:10014000000000000000000000000000C7010008DF
:10015000C7010008C7010008C7010008C70100085F
:10016000C7010008C70100080000000000000000EF
:10017000000000000000000000000000000000007F
:1001800000000000C701000800000000000000009F
:10019000C7010008C7010008DFF80CD000F09EF985
:1001A0000048004755210008900400200648804779
:1001B00006480047FEE7FEE7FEE7FEE7FEE7FEE74C
:1001C000FEE7FEE7FEE7FEE7891800089901000850
:1001D0002DE9F05F0546002092469B46884606467C
:1001E000814640241BE0284641464746224600F00F
:1001F00008F953465A46C01A914110D31146184681
:10020000224600F0EFF82D1A67EB01084F46224610
:100210000120002100F0E6F817EB00094E41201EF6
:10022000A4F10104DFDC484631462A464346BDE8D6
:10023000F09F40EA01039B0703D009E008C9121FA1
:1002400008C0042AFAD203E011F8013B00F8013B90
:10025000521EF9D27047D2B201E000F8012B491EBC
:10026000FBD270470022F6E710B513460A46044653
:100270001946FFF7F0FF204610BD421C10F8011B85
:100280000029FBD1801A70472DE9FE4F81EA030453
:1002900004F0004421F0004100944FF0000B23F0E3
:1002A000004350EA01045ED052EA03045BD0C3F37A
:1002B0000A54C1F30A552C44A4F2F3340194A0FB70
:1002C0000254C1F3130141F48011C3F3130343F447
:1002D000801301FB024400FB034E840A970A44EAA0
:1002E000815447EA8357A4FB076802958D0A05FBF2
:1002F00007854FEA932C04FB0C542705029D4FEA17
:10030000065847EA1637B5EB08056EEB070C870E63
:10031000920E47EA811742EA8312A7FB0201B6EB6D
:100320000B0164EB00042B0D43EA0C335E1844EB25
:100330001C50DA465146E7FB0201C5F313044FEAAD
:100340000B3343EA14534FEA0432019C43EA060399
:10035000A4F10C040294009CCDE900B400F070F804
:1003600003B0BDE8F08F00200146F9E70EB540F27A
:10037000334102910021CDE900110A460B4600F0FD
:100380005FF803B000BDC1F30A5210B5C1F3130109
:1003900040F2FF3341F480119A4201DA002010BD8F
:1003A00040F233439A42A2F2334203DC524200F05D
:1003B00028F810BD904010BD30B50B460146002016
:1003C0002022012409E021FA02F59D4205D303FA17
:1003D00002F5491B04FA02F52844151EA2F1010298
:1003E000F1DC30BD202A04DB203A00FA02F10020C3
:1003F00070479140C2F1200320FA03F31943904063
:100400007047202A04DB203A21FA02F000217047CD
:1004100021FA02F3D040C2F120029140084319466C
:10042000704710B5141E73F1000408DA401C41F146
:10043000000192185B411A4301D120F0010010BD68
:100440002DE9F04D92469B4611B1B1FA81F202E0DE
:10045000B0FA80F220329046FFF7C4FF04460F4600
:1004600040EA0A0041EA0B0153465A46084313D0BA
:10047000114653EA010019D0C8F140025046FFF777
:10048000C0FF05460E46504659464246FFF7AAFFB2
:10049000084305D0012004E020463946BDE8F08D30
:1004A0000020054346EAE0762C4337430A9863056B
:1004B000E40AA0EB08000022FD0A44EA47540A308F
:1004C00002D500200146E9E7010510196941DDE97F
:1004D000084500196941BDE8F04DA2E7064C074DFB
:1004E00006E0E06840F0010394E807009847103404
:1004F000AC42F6D3FFF754FECC230008EC230008EF
:1005000000BFFEE770477047F8B503460A4600256E
:10051000002400200021CDE0012606FA01F516682E
:1005200006EA0504AC4273D15668022E02D0566822
:10053000122E13D1CF0803F1200656F827004E07DC
:10054000F70E0F26BE40B0434F07FF0E1669BE40A0
:100550003043CF0803F1200646F8270018684F0003
:100560000326BE40B043167906F003064F00BE4096
:10057000304318605668012E08D05668022E05D008
:100580005668112E02D05668122E13D198684F006B
:100590000326BE40B0434F00D668BE40304398604B
:1005A000586801268E40B0431679C6F300168E4077
:1005B00030435860D8684F000326BE40B0434F0018
:1005C0009668BE403043D860566806F08056B6F153
:1005D000805F6ED100BF00260096384E366846F424
:1005E0008046364F3E603E46366806F480460096AA
:1005F00000BF00BF324E8F0856F827008E07370F16
:100600000F26BE40B0432F4EB34202D1002615E064
:100610004FE02D4EB34201D101260FE02B4EB342E5
:1006200001D102260AE02A4EB34201D1032605E099
:10063000284EB34201D1042600E007268F073F0F62
:10064000BE4030431E4E8F0846F82700224E3068C9
:10065000A043566806F48036B6F5803F00D12043AB
:100660001D4E3060361D3068A043566806F40036D3
:10067000B6F5003F00D12043174E361D3060361DC1
:100680003068A043566806F48016B6F5801F00D186
:100690002043114E08363060361D3068A04356683E
:1006A00006F40016B6F5001F00D120430A4E0C36A2
:1006B0003060491C1029FFF42FAFF8BD44380240C8
:1006C00008380140000002400004024000080240D7
:1006D000000C024000100240003C0140014800684C
:1006E00070470000000000200348006803490978B3
:1006F00008440149086070470000002008000020FD
:1007000010B50D48006840F400700B4908600846B9
:10071000006840F4806008600846006840F480701B
:100720000860032000F096F8002000F007F800F0C1
:100730002BF8002010BD0000003C024070B50446BC
:100740000E4800784FF47A71B1FBF0F00C4909685B
:10075000B1FBF0F5284600F0F3FB08B1012070BDB5
:10076000102C07D200222146501E00F035F8054813
:10077000046001E00120F2E70020F0E7080000201B
:100780000C0000200400002008B500BF00200090ED
:100790001048006840F480400E4908600846006830
:1007A00000F48040009000BF00BF00BF0020009018
:1007B000081F006840F08050091F08600846006864
:1007C00000F08050009000BF00BF072000F042F80A
:1007D00008BD0000443802402DE9F05F80460D4618
:1007E0001646002700F0D4FF074639462A4633460E
:1007F00001F00700C0F1070ABAF1040F02D94FF067
:10080000040A01E0C0F1070AD14600F1040ABAF176
:10081000070F02D24FF0000A01E0A0F1030AD4460C
:100820004FF0010A0AFA09FAAAF1010A0AEA020AD1
:100830000AFA0CFA4FF0010B0BFA0CFBABF1010BAF
:100840000BEA030B4AEA0B042146404600F0A8FFDE
:10085000BDE8F09F00BF00F00702064B19684FF695
:10086000FF031940044B0B4343EA0221014B19607B
:1008700000BF70470CED00E00000FA0570B50446BB
:100880000D460CB9012070BD5848006800F00F00FB
:10089000A84209D255490D700846006800F00F00C3
:1008A000A84201D00120EEE7207800F002000228E3
:1008B0001DD1207800F00400042805D14C480068C0
:1008C00040F4E0504A490860207800F00800082809
:1008D00005D14748006840F46040454908604448F5
:1008E000006820F0F000A1680843414908602078C2
:1008F00000F00100A8B36068012807D13C4808381F
:100900000068C0F34040B8B90120BCE76068022825
:1009100002D06068032807D1354808380068C0F362
:10092000406048B90120AEE7314808380068C0F39C
:10093000400008B90120A6E72D48006820F0030018
:10094000616808432A490860FFF7C8FE064609E0C7
:10095000FFF7C4FE801B41F28831884202D9032090
:1009600091E707E02248006800F00C006168B0EBF6
:10097000810FEDD11D48006800F00F00A84209D991
:100980001A490D700846006800F00F00A84201D017
:10099000012078E7207800F00400042807D11448EB
:1009A000006820F4E050E1680843114908602078AD
:1009B00000F00800082808D10D48006820F46040C5
:1009C000216940EAC1000A49086000F03DF8084981
:1009D0000968C1F30311074A515CC8400649086021
:1009E0000020FFF7ABFE00204DE70000003C024076
:1009F00008380240B42300080C00002001480068B9
:100A0000704700000C00002000B5FFF7F7FF044915
:100A10000968C1F38221034A515CC84000BD00004F
:100A200008380240C423000800B5FFF7E7FF044977
:100A30000968C1F34231034A515CC84000BD00005F
:100A400008380240C42300082DE9F047002400259F
:100A50000026A1462548006800F00C0020B10428BB
:100A600005D008283AD105E0DFF8849039E0DFF8B6
:100A7000849036E01D48001F006800F03F041B48CA
:100A8000001F006800F4800078B11A481749091F58
:100A90000968C1F38811A0FB0170014622460023BA
:100AA0003846FFF795FB05460EE011480F49091F30
:100AB0000968C1F38811A0FB01700146224600239A
:100AC0003846FFF785FB05460848001F0068C0F35D
:100AD0000140401C4600B5FBF6F902E0DFF810903B
:100AE00000BF00BF4846BDE8F0870000083802405C
:100AF0000024F40000127A00F8B504460CB9012075
:100B0000F8BD207800F00100002874D0F948006892
:100B100000F00C0004280DD0F648006800F00C002E
:100B2000082813D1F348001F006800F48000B0F5D6
:100B3000800F0BD1EF4808380068C0F34040002810
:100B400059D06068002856D10120D9E700BF6068FD
:100B5000B0F5803F08D1E7480838006840F480309D
:100B6000E449083908601EE06068B0F5A02F0DD197
:100B7000E0480838006840F48020DE490839086001
:100B80000846006840F4803008600CE0D948083816
:100B9000006820F48030D7490839086008460068AA
:100BA00020F48020086000BF606890B1FFF796FDD8
:100BB000054606E0FFF792FD401B642801D903209B
:100BC0009EE7CC4808380068C0F340400028F1D0C8
:100BD00011E0FFF783FD054606E0FFF77FFD401BB0
:100BE000642801D903208BE7C24808380068C0F3A5
:100BF00040400028F1D1207800F0020002285FD1A7
:100C0000BC48006800F00C0058B1BA48006800F019
:100C10000C0008281CD1B748001F006800F48000B1
:100C2000B0B9B44808380068C0F3400020B1E068AB
:100C3000012801D0012063E7AE480838006820F0A1
:100C4000F800216940EAC100AA490839086037E084
:100C5000E06800B30120A8490860FFF73FFD0546A2
:100C600006E0FFF73BFD401B022801D9032047E7C0
:100C7000A04808380068C0F340000028F1D09D4823
:100C80000838006820F0F800216940EAC10099495D
:100C90000839086014E0002097490860FFF71EFD3E
:100CA000054606E0FFF71AFD401B022801D9032084
:100CB00026E7904808380068C0F340000028F1D1CA
:100CC000207800F0080008282CD16069A8B1012024
:100CD0008A490860FFF702FD054606E0FFF7FEFCC3
:100CE000401B022801D903200AE782486C300068C3
:100CF000C0F340000028F1D014E000207F490860D4
:100D0000FFF7ECFC054606E0FFF7E8FC401B022875
:100D100001D90320F4E677486C300068C0F3400046
:100D20000028F1D1207800F00400042870D10026BA
:100D300070483830006800F0805090B900BF002043
:100D400000906C483830006840F080506949383174
:100D500008600846006800F08050009000BF00BFA7
:100D600001266748006800F48070B0B964480068E4
:100D700040F4807062490860FFF7B0FC054606E069
:100D8000FFF7ACFC401B022801D90320B8E65C4801
:100D9000006800F480700028F2D000BFA06801282D
:100DA00008D154486830006840F00100514968316A
:100DB00008601DE0A06805280DD14E486830006825
:100DC00040F004004B49683108600846006840F074
:100DD000010008600CE047486830006820F001001E
:100DE0004449683108600846006820F00400086043
:100DF00000BFA068A8B1FFF771FC054609E0FFF746
:100E00006DFC401B41F28831884202D9032077E60D
:100E100026E0384868300068C0F340000028EED073
:100E200013E0FFF75BFC054608E0FFF757FC401BAB
:100E300041F28831884201D9032061E62D486830AB
:100E40000068C0F340000028EFD1012E07D12948E7
:100E50003830006820F0805026493831086000BFE3
:100E6000A069B8B32348006800F00C0008285ED0E1
:100E7000A069022846D100201F490866FFF72EFC12
:100E8000054606E0FFF72AFC401B022801D9032093
:100E900036E6184808380068C0F340600028F1D1F1
:100EA000D4E907010843616A40EA81110122A06A7E
:100EB000C2EB500041EA00412C20005D41EA006095
:100EC0000C49091F086001200B490866FFF706FC62
:100ED000054607E02DE0FFF701FC401B022801D981
:100EE00003200DE6034808380068C0F3406000287E
:100EF000F1D01EE00838024000004742800E474211
:100F00000070004000200C490866FFF7E7FB05462B
:100F100006E0FFF7E3FB401B022801D90320EFE5C1
:100F200006480068C0F340600028F2D101E00120CB
:100F3000E6E50020E4E500000000474200380240FA
:100F400070B504462546681EB0F1807F01D30120AC
:100F50000FE0681E4FF0E02148610F214FF0FF3095
:100F600000F01EFC00204FF0E0218861072008619E
:100F7000002070BD024600BF92F83800012801D160
:100F800002207047012082F8380000BF022082F85A
:100F900039001068406820F07000136858601068CD
:100FA00040680B681843136858601068806820F028
:100FB000800013689860106880684B681843136855
:100FC0009860012082F8390000BF002082F83800C4
:100FD00000BF00BFD5E710B504460CB9012010BD15
:100FE00094F8390028B9002084F83800204600F031
:100FF0000DF8022084F83900211D206800F076FCED
:10100000012084F839000020E9E7000008B50168F4
:10101000B1F1804F0FD100BF00210091064909684E
:1010200041F00101044A11601146096801F0010113
:10103000009100BF00BF08BD403802402DE9F041DB
:1010400004460D46002600BF94F83800012802D15E
:101050000220BDE8F081012084F8380000BF0220A2
:1010600084F839002068866826F0770626F47F46E3
:1010700020688660286850283BD00CDC202860D08F
:1010800004DC002853D0102865D155E030285DD00D
:10109000402860D141E0602835D070280DD0B0F5EF
:1010A000805F03D0B0F5005F55D115E020688068FF
:1010B00020F00700216888604EE0D5E902136A68D5
:1010C000206800F079FC2068866826F0770646F0F4
:1010D0007706206886603FE0D5E902136A682068D9
:1010E00000F06AFC2068806840F4804021688860D5
:1010F00032E0EA686968206800F040FD502120680D
:1011000000F066FC28E0EA686968206800F04BFDA2
:101110006021206800F05CFC1EE0EA6869682068D5
:1011200000F02CFD4021206800F052FC14E000216A
:10113000206800F04DFC0FE01021206800F048FC12
:101140000AE02021206800F043FC05E030212068FF
:1011500000F03EFC00E000BF00BF012084F8390031
:1011600000BF002084F8380000BF00BF71E7000016
:1011700010B586B00446142101A8FFF773F8206863
:10118000B0F1804F3BD100BF002000901D480068A7
:1011900040F001001B4908600846006800F00100AB
:1011A000009000BF00BF00BF00200090084600680C
:1011B00040F0020008600846006800F0020000905D
:1011C00000BF00BF03200190022002900020039086
:1011D000032004900120059001A90B48FFF794F922
:1011E0004FF48060019002200290002003900320C1
:1011F00004900120059001A90448FFF785F906B085
:1012000010BD0000303802400000024000040240DF
:1012100070B504460D46164600BF94F83800012804
:1012200001D1022070BD012084F8380000BF0220E7
:1012300084F8390036B1042E1BD0082E31D00C2E84
:101240005ED145E02946206800F0CCFB206880692B
:1012500040F00800216888612068806920F004005F
:10126000216888612068806929690843216888614C
:1012700047E02946206800F0E7FB2068806940F4D9
:101280000060216888612068806920F4806021689E
:10129000886120688069296940EA012021688861A5
:1012A0002FE02946206800F007FC2068C06940F064
:1012B00008002168C8612068C06920F00400216826
:1012C000C8612068C069296908432168C86118E0BD
:1012D0002946206800F026FC2068C06940F40060C0
:1012E0002168C8612068C06920F480602168C861F5
:1012F0002068C069296940EA01202168C86100E0CE
:1013000000BF00BF012084F8390000BF002084F82E
:10131000380000BF00BF85E710B504460CB90120B6
:1013200010BD94F8390028B9002084F83800204610
:1013300000F00CF8022084F83900211D206800F02C
:10134000D5FA012084F839000020E9E77047000051
:1013500030B504460D4601222946206800F01EFBE8
:101360000A492068884201D1012000E0002028B10C
:101370002068406C40F400402168486420680068A0
:1013800040F0010021680860002030BD00000140ED
:1013900010B504460CB9012010BDA06900B100E0F1
:1013A00000BF94F8390028B9002084F8380020469E
:1013B00000F028F8242084F839002068C06820F460
:1013C00000502168C860204600F004FC20680069D5
:1013D00020F49040216808612068406920F02A00CC
:1013E000216848612068C06840F400502168C860E6
:1013F0000020E063202084F8390084F83A000020BF
:10140000CAE7000010B586B00446142101A8FEF713
:1014100029FF1B49206888422FD100BF002000907F
:101420001848006840F40030164908600846006813
:1014300000F40030009000BF00BF00BF002000900B
:1014400010481038006840F001000E49103908605B
:101450000846006800F00100009000BF00BF0C20AB
:1014600001900220029001200390032004900720A5
:10147000059001A90448FFF747F806B010BD000029
:101480000044004040380240000002402DE9F8438B
:1014900004460D4616461F464FF0000994F83A00E0
:1014A000202860D105B116B90120BDE8F88300BF3E
:1014B00094F83800012801D10220F6E7012084F8D1
:1014C000380000BF0020E063222084F83A00FFF7D4
:1014D00005F98146A685E68539E0E08D401EE08568
:1014E000A068B0F5805F1BD14B460022202120462A
:1014F000009700F023FD08B10320D6E7A846206935
:1015000038B920684068C0F30800A8F80000AD1C96
:101510001DE020684068C0B2A8F800006D1C16E00D
:101520004B46002220212046009700F007FD08B11D
:101530000320BAE7206920B92068406805F8010B4C
:1015400005E02068406800F07F0005F8010BE08DA1
:101550000028C2D1202084F83A0000BF002084F87F
:10156000380000BFA1E702209FE72DE9F8430446B9
:101570000D4616461F464FF0000994F83900202802
:101580005CD105B116B90120BDE8F88300BF94F81D
:101590003800012801D10220F6E7012084F8380044
:1015A00000BF0020E063212084F83900FFF796F89F
:1015B0008146A684E6842BE0E08C401EE084A0688F
:1015C000B0F5805F16D14B4600228021204600975F
:1015D00000F0B4FC08B10320D6E7A846B8F8000034
:1015E000C0F3080021684860206908B9AD1C0FE00D
:1015F0006D1C0DE04B46002280212046009700F034
:101600009DFC08B10320BFE715F8010B2168486075
:10161000E08C0028D0D14B46002240212046009784
:1016200000F08CFC08B10320AEE7202084F83900DC
:1016300000BF002084F8380000BFA5E70220A3E720
:1016400000BFFEE708B500BF002000900E4800680C
:1016500040F001000C4908600846006800F00100F5
:10166000009000BF00BF00BF002000900846006847
:1016700040F0020008600846006800F00200009098
:1016800000BF00BF08BD00003038024000B58DB07B
:10169000002009900A900B900C90079008901C2154
:1016A0006846FEF7DFFD4FF0804028490860632060
:1016B000486000212548816042F20F71C16000211D
:1016C0000161FFF788FC08B1FEF71DFF4FF4805061
:1016D000099009A91D48FFF7B1FC08B1FEF713FFF7
:1016E0001A48FFF719FE08B1FEF70DFF002007901A
:1016F000089007A91548FFF73DFC08B1FEF703FF66
:101700006020009000200190029004900022694621
:101710000E48FFF77DFD08B1FEF7F5FE042269468D
:101720000A48FFF775FD08B1FEF7EDFE40F2826052
:101730000190082269460548FFF76AFD08B1FEF7E7
:10174000E2FE0248FFF714FD0DB000BD10000020BE
:1017500010B50B480B4908604FF4E1304860002198
:1017600008488160C16001610C21416100218161F3
:10177000C161FFF70DFE08B1FEF7C5FE10BD000008
:10178000004400404C00002000BFFEE7704700000E
:1017900002480068C0F30220704700000CED00E032
:1017A00010B5002807DA0A07140E054A00F00F03E7
:1017B0001B1FD45403E00A07130E024A135410BD32
:1017C00018ED00E000E400E07047704710B5FEF748
:1017D0008BFF10BD00B593B0302107A8FEF742FD86
:1017E000142102A8FEF73EFD00BF0020019024480E
:1017F000006840F08050224908600846006800F008
:101800008050019000BF00BF00BF002001901D4824
:10181000006840F440401B4908600846006800F436
:101820004040019000BF00BF0220079001200A90B5
:1018300010200B9002200D9000210E9108210F9195
:1018400064211091022111910421129107A8FFF740
:1018500053F908B1FEF757FE0F20029002200390C3
:10186000002004904FF48050059000200690032142
:1018700002A8FFF703F808B1FEF745FE13B000BD5C
:1018800040380240007000401448006840F4700086
:10189000124908601248006840F0010010490860D1
:1018A00000200F49083108600D4800680D490840C4
:1018B0000B4908600C48091D0860081F006820F4E7
:1018C0008020091F0860002005490C3108604FF096
:1018D00000600249803908607047000088ED00E030
:1018E00000380240FFFFF6FE10300024002202689C
:1018F000234B98420BD0B0F1804F08D0214B984237
:1019000005D0214B984202D0204B984201D10123AF
:1019100000E000231BB122F070024B681A43184B01
:10192000984214D0B0F1804F11D0164B98420ED08F
:10193000154B98420BD0154B984208D0144B984247
:1019400005D0144B984202D0134B984201D1012389
:1019500000E000231BB122F44072CB681A430260FE
:101960008B68C3620B688362054B984201D10123E7
:1019700000E000230BB10B6903630123436170474F
:10198000000001400004004000080040000C00403E
:1019900000400140004401400048014030B50023B0
:1019A000012404FA01F3046A9C430462046A02FA03
:1019B00001F52C43046230BD30B50C46002181682E
:1019C00021F47F4142EA032525432943816030BD4C
:1019D0000A460021816821F0700142F00703194393
:1019E0008160704730B5002400220023056A25F08D
:1019F00001050562026A4368846924F0700424F0DA
:101A000003040D682C4322F002028D682A430D4D19
:101A1000A84201D1012500E000256DB122F00802A5
:101A2000CD682A4322F0040223F4807323F4007368
:101A30004D692B438D692B43436084614D68456339
:101A4000026230BD0000014030B5002400220023B6
:101A5000056A25F010050562026A4368846924F46A
:101A6000E04424F440740D6844EA052422F0200286
:101A70008D6842EA05120F4DA84201D1012500E010
:101A8000002585B122F08002CD6842EA051222F0DD
:101A9000400223F4806323F400634D6943EA850325
:101AA0008D6943EA8503436084614D688563026202
:101AB00030BD00000000014030B5002400220023AA
:101AC000056A25F480750562026A4368C46924F0DA
:101AD000700424F003040D682C4322F400728D6816
:101AE00042EA05220E4DA84201D1012500E0002561
:101AF00085B122F40062CD6842EA052222F48062B8
:101B000023F4805323F400534D6943EA05138D6990
:101B100043EA05134360C4614D68C563026230BD8A
:101B20000000014030B5002200230024056A25F49E
:101B300080550562036A4468C26922F4E04222F4D7
:101B400040720D6842EA052223F400538D6843EA8F
:101B50000533094DA84201D1012500E0002525B13A
:101B600024F480444D6944EA85144460C2614D68A0
:101B70000564036230BD00000000014030B50B4633
:101B8000144600210022026A056A25F0010505625B
:101B9000816921F0F00141EA041122F00A021A439E
:101BA0008161026230BD30B50B461446002100222F
:101BB000056A25F0100505628169026A21F4704109
:101BC00041EA043122F0A00242EA0312816102627A
:101BD00030BD00002DE9F04104460025206805696C
:101BE00025F44055E0680543206805612068C56814
:101BF00049F20C6085432169A06808436169084384
:101C0000E169084305432068C5602068456925F4FB
:101C10004075A069054320684561E069B0F5004F53
:101C20007ED1C4492068884203D0C34920688842D5
:101C30005DD1FEF7F9FE00EBC00101EB0010616819
:101C40004900B0FBF1F06421B0FBF1F00601FEF7B2
:101C5000EBFE00EBC00101EB001061684900B0FB36
:101C6000F1F7FEF7E1FE00EBC00101EB0010616847
:101C70004900B0FBF1F06421B0FBF1F000EBC001D2
:101C800001EB0010A7EB8000322101EBC0006421C2
:101C9000B0FBF1F000F0F80006EB4006FEF7C4FEE2
:101CA00000EBC00101EB001061684900B0FBF1F7E7
:101CB000FEF7BAFE00EBC00101EB001061684900BD
:101CC000B0FBF1F06421B0FBF1F000EBC00101EBDF
:101CD0000010A7EB8000322101EBC0006421B0FBB3
:101CE000F1F000F0070030442168886020E1FEF741
:101CF0008BFE00EBC00101EB001061684900B0FBF6
:101D0000F1F06421B0FBF1F00601FEF77DFE00EB7F
:101D1000C00101EB001061684900B0FBF1F700E081
:101D200045E0FEF771FE00EBC00101EB00106168B9
:101D30004900B0FBF1F06421B0FBF1F000EBC00111
:101D400001EB0010A7EB8000322101EBC000642101
:101D5000B0FBF1F000F0F80006EB4006FEF754FE91
:101D600000EBC00101EB001061684900B0FBF1F726
:101D7000FEF74AFE00EBC00101EB0010616849006C
:101D8000B0FBF1F06421B0FBF1F000EBC00101EB1E
:101D90000010A7EB8000322101EBC0006421B0FBF2
:101DA000F1F000F00700304421688860C0E061492C
:101DB0002068884203D06049206888425CD1FEF7E1
:101DC00033FE00EBC00101EB001061688900B0FB3D
:101DD000F1F6FEF729FE00EBC00101EB001061688F
:101DE0008900B0FBF1F06421B0FBF1F000EBC00121
:101DF00001EB0010A6EB8000322101EB0010642102
:101E0000B0FBF1F000F0F006FEF70EFE00EBC001B3
:101E100001EB001061688900B0FBF1F06421B0FBB8
:101E2000F1F006EB0016FEF7FFFD00EBC00101EB41
:101E3000001061688900B0FBF1F7FEF7F5FD00EBDB
:101E4000C00101EB001061688900B0FBF1F0642172
:101E5000B0FBF1F000EBC00101EB0010A7EB80003C
:101E6000322101EB00106421B0FBF1F000F00F0013
:101E70003044216888605BE0FEF7C6FD00EBC001DE
:101E800001EB001061688900B0FBF1F6FEF7BCFDC4
:101E900000EBC00101EB001061688900B0FBF1F0BC
:101EA0006421B0FBF1F000EBC00101EB0010A6EBE8
:101EB0008000322101EB00106421B0FBF1F000F052
:101EC000F006FEF7A1FD00EBC00101EB0010616818
:101ED0008900B0FBF1F06421B0FBF1F006EB0016D5
:101EE000FEF792FD00EBC00101EB00106168890074
:101EF000B0FBF1F7FEF788FD00EBC00101EB00102D
:101F000061688900B0FBF1F06421B0FBF1F000EBF7
:101F1000C00101EB0010A7EB8000322101EB0010A3
:101F20006421B0FBF1F000F00F00304421688860BC
:101F3000BDE8F08100100140001401402DE9F0419E
:101F400004460D4617469846069E21E0701CF8B1DF
:101F50002EB1FEF7C3FBA0EB0800B04218D92068F1
:101F6000C06820F4D0702168C8602068406920F003
:101F7000010021684861202084F8390084F83A0083
:101F800000BF002084F8380000BF0320BDE8F081C6
:101F9000206800682840A84201D1012000E000200C
:101FA000B842D3D00020F1E700BFFEE70FB4084BE2
:101FB00010B504A902AA039800F01CF8044602A96F
:101FC000002000F0C1F8204610BC5DF814FB0000B2
:101FD0004921000802E008C8121F08C1002AFAD1EE
:101FE00070477047002001E001C1121F002AFBD199
:101FF000704700002DE9FF4F89B09B46044600253D
:1020000006E025280BD05A460B999047641C6D1C9E
:1020100020780028F5D10DB02846BDE8F08F0027C4
:10202000B8460122474900E0074314F8013F203B2E
:1020300002FA03F00842F7D120782E2819D114F8BB
:10204000010F47F004072A280ED06FF02F022078E6
:10205000A0F1300109290CD808EB880102EB4101FD
:1020600000EB0108641CF2E70A98641C50F8048B2A
:102070000A9020780028CED0642808D0692806D09D
:1020800075281ED05A460B9990476D1C58E00A9946
:102090004FF00A0901C90A91002802DA40422D21B5
:1020A00002E0390504D52B218DF82010012103E031
:1020B000F90704D02021F7E78A4608AE0DE0002199
:1020C000FAE70A994FF00A0901C90A91F7E7494668
:1020D000FEF772F9303106F8011D0028F7D1ADEB9B
:1020E000060000F12009780701D44FF00108C84527
:1020F00002DDA8EB090000E000208046002706E092
:1021000008A85A46C05D0B9990476D1C7F1C574527
:10211000F6DB04E030205A460B9990476D1CB8F16D
:102120000001A8F10108F5DC05E016F8010B5A469C
:102130000B9990476D1CB9F10001A9F10109F4DC7C
:10214000641C65E7092801000A68531C0B601070C5
:10215000704700002DED068B94B0FEF7D1FAFFF723
:1021600039FBFFF76FFAFFF791FAFFF7F1FA00BFBB
:10217000002400250026402273A104A8FEF759F888
:1021800004A8FEF77AF887B24FF47A733A4604A9A6
:102190007D48FFF7EAF900BF7B4800680068C0F39C
:1021A00080100028F8D0CDE000BF774800680068B4
:1021B000C0F340100028F8D04FF47A73012203A92D
:1021C0007148FFF763F99DF80C00722803D09DF861
:1021D0000C00522801D1641C14E09DF80C00672803
:1021E00003D09DF80C00472801D16D1C0AE09DF832
:1021F0000C00622803D09DF80C00422801D1761C07
:1022000000E09FE0002002900620B6FBF0F100FB0A
:10221000116000EB800087000620B5FBF0F100FBA9
:10222000115000EB80004FEA80080620B4FBF0F16B
:1022300000FB114000EB80004FEA800943464A460C
:1022400052A102A80097FFF7B1FE00BF4E480068F8
:102250000068C0F380100028F8D002A8FEF70DF83F
:1022600087B24FF47A733A4602A94748FFF77DF9DF
:102270000620B4FBF0F100FB11473846FEF776F874
:1022800041EC1A0B9FED460B53EC102BFDF7FCFFB6
:1022900041EC190B9FED440B53EC102BFDF7F4FFB1
:1022A00041EC180BFEF76FF841490968C863062036
:1022B000B5FBF0F100FB11573846FEF757F841EC3B
:1022C0001A0B9FED370B53EC102BFDF7DDFF41ECA4
:1022D000190B9FED350B53EC102BFDF7D5FF41EC9F
:1022E000180BFEF750F83249096888630620B6FBE0
:1022F000F0F100FB11673846FEF738F841EC1A0B95
:102300009FED270B53EC102BFDF7BEFF41EC190B93
:102310009FED250B53EC102BFDF7B6FF41EC180B8E
:10232000FEF731F822490968486308212048FFF781
:102330000FF804211E48FFF70BF800211C48FFF797
:1023400007F800BF30E70000446973706C617920C2
:10235000426C696E6B696E67204C45442050524553
:1023600053532028722C20672C20622920746F2060
:1023700061646A757374204C45442036207374651B
:1023800070732E0D0A0000004C00002028256425E3
:10239000252C256425252C25642525290D0A0000DA
:1023A0009A9999999999C93F000000008087C34084
:1023B00010000020000000000000000001020304E3
:1023C000060708090000000001020304EC230008CE
:1023D0000000002010000000D41F0008FC230008AB
:1023E0001000002080040000E41F0008000000002E
:0C23F00010000000010000000024F400B8
:040000050800019955
:00000001FF
